:020000041000EA
:1000000000B5324B212058609868022188439860DF
:10001000D860186158612E4B002199600221596106
:100020000121F02299502B49196001219960352056
:1000300000F044F80222904214D00621196600F024
:1000400034F8196E01211966002018661A6600F04E
:100050002CF8196E196E196E052000F02FF8012189
:100060000842F9D1002199601B49196000215960AB
:100070001A491B48016001219960EB211966A021F2
:10008000196600F012F800219960164914480160C1
:100090000121996001BC002800D000471248134993
:1000A000086003C880F30888084703B5996A0420EC
:1000B0000142FBD001200142F8D103BD02B5186610
:1000C0001866FFF7F2FF186E186E02BD00000240BE
:1000D000000000180000070000035F00212200005C
:1000E000F4000018222000A00001001008ED00E03C
:1000F00000000000000000000000000074B24E7A12
:1001000000200420F7010010C3010010C5010010F9
:10011000C1010010C1010010C1010010C101001097
:10012000C1010010C1010010C1010010C701001081
:10013000C1010010C1010010C9010010CB01001065
:10014000CD010010CD010010CD010010CD01001037
:10015000CD010010CD010010CD010010CD01001027
:10016000CD010010CD010010CD010010CD01001017
:10017000CD010010CD010010CD010010CD01001007
:10018000CD010010CD010010CD010010CD010010F7
:10019000CD010010CD010010CD010010CD010010E7
:1001A000CD010010CD010010CD010010CD010010D7
:1001B000CD010010CD010010CD010010CD010010C7
:1001C00000BE00BE00BE00BE00BE00BEEFF3058054
:1001D000103800BEF2EB8871F04304101444041090
:1001E0003802001090A31AE71E481F49086006C88D
:1001F00081F3088810471D480068002801D019487D
:10020000F3E70DA40ECC002902D000F012F8F9E7B4
:100210001749184A002000E001C19142FCD116495B
:100220008847164988471649884700BEFDE701C937
:1002300001C29A42FBD3704714440410C00000204E
:10024000181800206C5B041000000420000004203B
:100250006C5B04100010042000100420000000005B
:10026000704700000000000008ED00E0000000D032
:1002700018180020B030002075490010FD02001051
:100280006D490010F8B5C04606480749091A8B1099
:10029000C90FC91810B5491003D0044B002B00D06A
:1002A000984710BD18180020181800200000000002
:1002B000054B10B5002B03D00449054800E000BFF2
:1002C000FFF7E2FF10BDC04600000000042F002031
:1002D000A4C4001010B500F063FAFCE710B504F0F8
:1002E00087FC1E2000F00EF907F068FA00F0D2F942
:1002F00010BDC04610B500F04DF910BD10B5FFF7A8
:10030000EDFF00221D4B042100201A7000F084FC38
:100310000421012000F080FC032301221849194C1C
:100320000B612368184853401B041B0C0360C02357
:1003300024689B0263401B0C1B0403600B680A20AB
:100340009A43124B1A6000F01BFDD02380221B063B
:10035000D2005A620E485A610BF0E0F90A2004F00C
:100360004BFC40B2831CF9D000F05CF90A2004F089
:1003700043FC40B2831CF1D0F6E7C046A730002012
:10038000000005400C0005400C1005400010054021
:10039000D5020010102270B50E490F4C0F4E8B691C
:1003A0001A4216D110008B6918401A42FAD10D6812
:1003B0002378EDB2DBB2F55423780133DBB223703E
:1003C0002378092BEBD9064B207018708B691A42E1
:1003D000E8D070BD00800340A9300020342F0020F9
:1003E000AA30002070B5454B02255D5F7E2D45D0BB
:1003F0002026434CA3691E42FCD17E232360FF2D9F
:1004000000D173E020263E4CA3691E42FCD1FF239D
:100410002360062D62D02026394CA3691E42FCD1F0
:1004200006232360854251D02026354CA3691E4205
:10043000FCD12060002D41D02020314C0600A36962
:100440001E401842FAD12660A9422FD020242C4801
:1004500083691C42FCD10160AA421FD02020284998
:100460008B691842FCD10A60EF2D0FD02021244A5D
:1004700093691942FCD1EF23136070BD2026204CF4
:10048000A3691E42FCD10D232360B1E720211C4A41
:1004900093691942FCD10D231360E7E72020184926
:1004A0008B691842FCD10D230B60D7E72024144838
:1004B00083691C42FCD10D230360C7E72024104848
:1004C00083691C42FCD10D230360B5E720260C4C48
:1004D000A3691E42FCD10D232360A5E72026084C0A
:1004E000A3691E42FCD10D23236094E72026044C0F
:1004F000A3691E42FCD10D23236083E794300020C2
:1005000000800340962170B504008901134801F072
:10051000D5FD0221042000F07FFB0221052000F020
:100520007BFB00200BF030FD0BF08EFC251C1E2CFD
:1005300000D91E25EAB200210620FFF753FF084B21
:10054000152008491D7000F055FD5022034B9A6399
:100550005A6B38231340044A136070BD0080034077
:10056000AC300020950300103490034070B50500B6
:100570000C000A0001000F20FFF734FF034B1D7031
:10058000034B1C7000F016F870BDC046A53000206B
:10059000A630002010B5002200211620FFF722FF10
:1005A00000F034F810BDC04610B5FFF7A3FE0020E0
:1005B000002110BD30B5114D85B02C6801F024FA32
:1005C000210001F065FB01F01FFA040001F028FD95
:1005D00000230B4A12184B41002B02DA0122094B6F
:1005E000524201210291002101910749200000910E
:1005F00001F08EFA286005B030BDC046883000207A
:10060000C0E1E400FFFFFF7FA905001010B5044B17
:100610001C6801F0F9F9210001F03AFB10BDC04659
:100620008830002010B503280DDC002806DC031DEF
:1006300014D0C31C17D005300BD010BDC1B201209F
:10064000FFF794FFF9E70338C1B20220FFF78EFFEE
:10065000F3E70021002007F0A1F8EEE701210020D8
:1006600007F09CF8E9E7FFF795FFE6E710B51021E2
:10067000024800F0ABFA024B186010BD5C2F00205E
:100680007C2F002010B52021014800F081F810BD1A
:100690005C2F002010B50A4800F08CF9002800DA21
:1006A000FEE7084800F08CFA00F052FA002800DA61
:1006B000FEE700F04DF8044800F064F810BDC046B5
:1006C000A8C400106D060010850600100048704791
:1006D000ECCA0010004870471CCA001070B5002812
:1006E00023D004282CD8174B8000C55828000BF0C5
:1006F000A5FCC0B2041C1F2812D8E4B2002808D000
:100700000023114AE95C01331180D9B202328C42D4
:10071000F8D8C0220134E3B25B00920013430CE02E
:100720001F24E4B20028EBD1F3E7064B022219683C
:10073000054802F067FCC1239B000448038070BD9C
:100740000020FCE7B8110020121E0020101E00201F
:1007500010B506F0FDFCFA210122074B8901196052
:10076000064B1A70064B1A80002259809A80D98055
:100770001A815A819A8110BD482F0020A430002090
:100780004C2F0020014B18607047C0469830002065
:1007900010B50A000100002005F000FE10BDC046A3
:1007A000012010B50021404204F054FF10BDC046A6
:1007B000002070470020704730B54B780020012B97
:1007C00002D14B79022B00D030BDCB788C78012B35
:1007D00010D0022BF8D1CB798D791B022B43022B41
:1007E000F2D1537810780A491B02034364000120B8
:1007F0000B53E9E7CB798D791B022B43012BE3D116
:100800001278044B52B2511E8A4101201A55DBE77F
:10081000FC2E0020F82E002000207047002070479A
:1008200030B5CB788A784D791B021A43040083B027
:100830001B0A012D19D0022D04D00020042D25D033
:1008400003B030BDD2B2012B1AD0022B28D14B7885
:10085000012B27D0022B23D11E4B6A4600931E4B3F
:100860000193082306F0F2F8EAE70020022BE7D113
:100870006A46009504339080200006F0E7F8DFE731
:10088000164BD218012305F0EDFBD9E7012B10D050
:10089000022BD5D101232000114A05F0E3FBCFE75D
:1008A0000020CDE70F4B5200D218022305F0DAFBEF
:1008B000C6E74B78012B07D0022BC1D10E232000B5
:1008C000094A05F0CFFBBBE704232000074A05F0E7
:1008D000C9FBB5E70100A6FF5A000100F82E002071
:1008E000A4300020FC2E00204C2F0020482F002098
:1008F000034B10B51B68002B00D09847012010BD9A
:10090000983000200120704701207047184B10B527
:10091000DA6A19690B2A24D00C2A1BD00120DA6963
:1009200089011A62DA690132D40F12190240121BCE
:10093000A024E405A446DA61DA69586A0432920018
:100940009A1852681B6B61444A60C861002B00D042
:10095000984710BDA0240B3A8A400648E40522506F
:10096000DCE7A0240A3A8A400348E4052250D5E790
:10097000C01F00201C0400000C04000010B50C4C2B
:100980006069002803D002F01FFB00236361A069A7
:10099000002803D002F018FB0023A361206900287F
:1009A00004DB0AF02FF801235B42236110BDC0462F
:1009B000C01F0020F8B50500574C3422002120004C
:1009C00002F01AFB10222900200002F01BFB2B680A
:1009D0001A3B032B00D994E0EB68686863624F49C7
:1009E0005E0002F06AFA02F075FA4D4A4D4B02F0D1
:1009F000F0F802F08BF92085300002F0A5FA606172
:100A0000002800D184E0300002F09EFAA0610028A6
:100A100000D17DE0012009F0FFFF206100285ADBB2
:100A2000082001F0C9FC02F055F90600A8680F0083
:100A300002F050F902000B003000390002F0C9F852
:100A40000022394B02F0BBF802F08CF92369374AD7
:100A5000D9021140364A061C0A430B216069E16243
:100A6000616AA024E405A4469B01324C63441C60E7
:100A70002C685860996020001A611F2100F0CCF8A2
:100A800000222000002100F0E1F82000002100F009
:100A900063F9294C0AF0D8FD2B6822681A3B1B0326
:100AA0005340E022EC21D2011340244A890513600F
:100AB000234B301C1A68234B5340234A1340234ACC
:100AC000136002F0E3F98721C90502F0F6F902F09C
:100AD000FBF9206117E06069002815D002F074FA74
:100AE0000023A0696361002803D002F06DFA00239F
:100AF000A3612069002804DB09F084FF01235B4225
:100B0000236101204042F8BDA0690028EDD1F8E73B
:100B1000FFF734FFF5E7C046C01F002000F07F4517
:100B20006666666666660A400000F03FFD7F00FF6D
:100B3000250012000CC0044000C0044000D0044056
:100B400008C00440090000010F00000F08D0044055
:100B500010B5164C0121E06A00F026FA1449E06A4B
:100B600000F048FAE36A0B2B19D00C2B14D10122A8
:100B7000236910499A400A60A0210022C9058C46C9
:100B8000E261616922629B01626A63445960DA61D1
:100B90000822094B1A6001E00120404210BD0122E9
:100BA000236906499A400A60E6E7C046C01F002054
:100BB0000D0900101424005000E0044004240050EB
:100BC000014B18637047C046C01F0020114B70B521
:100BD0000400D868884200D90800D9691A6A91428D
:100BE00015D01A6A043292009A1855682822995E24
:100BF0001A6A01321A62002808D0002389B246001E
:100C0000EA5A521AE25202339E42F9D170BD0020D4
:100C1000FCE7C046C01F0020094A83009A1810B59F
:100C200014684022544080322240064CC000A44642
:100C300063441A60044B9C466044416010BDC0464A
:100C400004C0014004D0014000400140074B800037
:100C5000C3181B68C90092000A435A400C23134072
:100C6000034A9446604403607047C04604C0014094
:100C700004D001408000002905D0064B9C46022389
:100C8000604403607047044B9C4602236044036049
:100C9000F8E7C04604E0014004F00140D0231B0601
:100CA0001B6830B50500584243412F205B42834307
:100CB0000E48EC0884460720284080008140200030
:100CC0000B4D3C3063448000A40041511B19002AA5
:100CD00005D08022920194466344196030BDC02241
:100CE0009201944663441960F8E7C04630410140E0
:100CF00000400140D023F0B5C6461B0698461B684D
:100D00000C4F9B001600FA5804000D0000B510426D
:100D100009D1290014430D203200FC5000F094F951
:100D200080BCB846F0BD01F0EFFB43461B689B005A
:100D3000FA58EEE72C2F002010B504000D2000F02B
:100D40007DFAD0231B061B6802499B005A58A24318
:100D50005A5010BD2C2F00208000002905D0064BD2
:100D60009C464023604403607047044B9C464023EC
:100D700060440360F8E7C04604E0014004F001402D
:100D80000123D0228340120693629361094A8300B3
:100D90009A1811684022514080320A400649C0002A
:100DA0008C4663441A60054B9C46052360444360AF
:100DB0007047C04604C0014004D0014000400140DB
:100DC0008023DB051868000F7047C0460FB400B5DC
:100DD000084883B003F0A6FF049B002B07D005A9A9
:100DE0001800019103F076FD034803F09BFF0120FA
:100DF00003F088FDDCC4001010C70010EFF3108072
:100E000072B6034A1368002BFCD0BFF35F8F7047A4
:100E10002C0100D0BFF35F8F0022024B1A6080F3D9
:100E2000108870472C0100D070B5EFF3108C72B6AB
:100E30000D4D2B68002BFCD0BFF35F8F0724CB0830
:100E4000C618C05C01230C40A3401C0004400342B0
:100E500007D118433070BFF35F8F2C608CF310887C
:100E600070BD1000FFF7B2FF2C0100D0F8B5474667
:100E7000CE46884680B5EFF3108C72B61C4D2C68B8
:100E8000002CFCD0BFF35F8F9A4222D807210126A5
:100E9000894602E00132934218D34D46370015408F
:100EA000AF40D4080119045D2742F3D110003C4340
:100EB0000C70BFF35F8F00220D4B1A608CF310880B
:100EC00000280EDBC0BCB946B046F8BD0120404248
:100ED000EFE7BFF35F8F00232B608CF310880120B6
:100EE00040424346002BEDD00898FFF76FFFC04605
:100EF0002C0100D030B5EFF3108C72B60A4C236889
:100F0000002BFCD0BFF35F8F072301220B409A40D8
:100F1000CD08435D93434355BFF35F8F00232360A8
:100F20008CF3108830BDC0462C0100D0044A1078E4
:100F3000431CDBB2172B00D9102313707047C04637
:100F4000CC11002010B5064B064C82B00100009376
:100F500018221F232000FFF789FF02B010BDC046F2
:100F6000ECC40010442100200021044B044ABFF3CC
:100F70005F8F02C39342FAD17047C046000100D090
:100F8000800100D0054B064A1360064A1360536087
:100F90009360D36013615361936170478080808058
:100FA00000E400E004E400E01F2318401E3B8340FF
:100FB000002905D0C021044A4900535013607047EE
:100FC000802201498B50FAE700E100E001228240D3
:100FD000034B1B6813405A1E9341D8B27047C0465A
:100FE00000E100E001238340014A13607047C046DE
:100FF00000E200E070B50D00EFF3108672B60F4A04
:101000001368002BFCD0BFF35F8F0D4B10309B6833
:1010100084001B590B4A934203D09D4201D001F03A
:1010200073FA074B9B681D51BFF35F8FBFF35F8F50
:101030000022024B1A6086F3108870BD240100D094
:1010400000ED00E0CD010010F0B557464E46DE46FB
:101050004546E0B585B0060000911700EFF3108B10
:1010600072B66A4A1368002BFCD0BFF35F8F00256D
:10107000674B5D579A46002D00DAA9E06B00654C7E
:1010800001935B199B009846A146C1444B465246CA
:101090009B7910361370604BB6009B6899590B1BF7
:1010A0002F2B33D95D4B994200D0ACE0019B4246D7
:1010B0009C465B4B6544AD0063535A4B0232A21809
:1010C000043B9B1A1B05584A5B0D651913436B8043
:1010D000564B0121AB80FF23AB71009BEF71AB60DE
:1010E0004B460B4319004C4B9B689951BFF35F8FE4
:1010F000BFF35F8F0022454B1A608BF3108805B059
:10110000F0BCBB46B246A946A046F0BD01200A008D
:101110008243D3798C46BB4231D8454613004449BB
:101120001B1B5B415943090D3D4B63533D4B02353E
:101130006519043B5B1B1B053B4D5B0D2B43AA460E
:101140004D466B800425AC465546E044131F44448D
:101150001B1B1B055B0D1D434B46997100999D8020
:1011600099604946DF71334B01431360BBE7580078
:10117000C01880002018C179B9422FD90200062377
:10118000D356002BF3DA02932B4B61460393131DC6
:101190009A4604235B429C46E14450464B461B1A48
:1011A0001B055B0D9C46204B957198466346404657
:1011B00003439380019B5A199200039BA418A380B8
:1011C000029B1C4AA371009B2260E771A3608AE71F
:1011D00001F09AF9002553465D574FE79088029336
:1011E0004005131D9A46031561469C464046D4446B
:1011F000634604302018181AE0230005400D1B0236
:1012000018430390C5E701F07FF94FE7240100D0B0
:10121000A8300020D011002000ED00E0CD0100102A
:1012200000A1FFFF0012002000E0FFFF01BDFFFF53
:10123000AAAA00000148804701BD0000F0B5DE46C3
:1012400057464E464546E0B50C0083B0EFF3108894
:1012500072B6634A1368002BFCD0BFF35F8F614BFB
:1012600061499A68030010339F00D55901938D425C
:1012700043D0A54254D05D4EAA1B2F2A3DD85C4BCB
:101280009B461B68994601231A009C4682404B46A8
:1012900013401F2299466346024093409A4680229B
:1012A0005B4650469850BFF35F8FEFF305839B4634
:1012B000002B37D0019B5B4501D001F025F90123BC
:1012C0002A009A439068844208D176E04B005B186C
:1012D0009B00F3189868844236D01A0006215156B4
:1012E0000029F3DA844254D04B46002B27D0C02289
:1012F00051463F4B5200995019603A4B9B68DD5163
:10130000BFF35F8FBFF35F8F0022354B1A6088F306
:10131000108803B0F0BCBB46B246A946A046F0BD5B
:101320000D00EAE72A0063469A4390688442D5D1CB
:1013300006201056130000280ADA0D0031E0802341
:1013400051462B4AD150D8E706201856002821DBF9
:1013500042001118890074188B46A1689960E179E0
:10136000D971062161569971002924DBA488F11AEC
:10137000640524155C44091909051E4C490D2143D7
:10138000998013181C4A9B001178F31899711070FA
:10139000AAE713005946002914D1FF31917117496A
:1013A000918015490A789A71154A9B1B5B415A43F3
:1013B000120D0A7098E71149E2E706201056130053
:1013C0000028C5DA0F4A1049D21A083A5002400DD7
:1013D000014399800D4952080A43DA8084E7C046E8
:1013E000240100D000ED00E0CD010010D01100205C
:1013F00000E100E000E0FFFFA830002001BDFFFF9A
:10140000AAAA00000A12002000F0FFFF00F8FFFF68
:1014100010B58308040003202040FF24054AC000C3
:101420009446844081409B0063441A68A2430A4367
:101430001A6010BD00E400E070B501240443EFF32E
:101440000581EFF3108C72B6214A1368002BFCD093
:10145000BFF35F8F1F4B05001F4AED1A6D416A43B2
:10146000120D1E4D8900AE6852B27658A6421CD0AD
:101470000621595691421CD012215956914222D030
:101480001E215956914220D02A21595603249142B7
:1014900010D0134B19781A708171BFF35F8F00223F
:1014A0000B4B1A608CF3108870BDAB680D4C5C5010
:1014B000EFE700246100091989005B18FF21997189
:1014C00009499980E5E70124F4E70224F2E7C046E0
:1014D000240100D0D0110020AAAA000000ED00E0F5
:1014E000A8300020CD01001001BDFFFF1F2110B565
:1014F000091A0248FFF7FEFC10BDC046AB300020C1
:1015000010B5084B084C82B001000093002205235F
:101510002000FFF7ABFC002801DB1F23181A02B0E4
:1015200010BDC04608C50010AB30002070B50400E7
:101530000E001500FFF7FAFC0100200000F006F88D
:10154000A680E580BFF35F8F70BDC046024B9C460E
:1015500061448900016070474000003470B5114C4F
:10156000114DAC420FD2FF262368002B0CD0FFF7A1
:10157000DDFC01002000FFF7E9FFA680BFF35F8FCD
:101580000834AC42F0D370BDFFF7D0FC010020005E
:10159000FFF7DCFF2671BFF35F8F0834AC42E3D363
:1015A000F1E7C046081800201818002010B5040004
:1015B000FFF7BCFC01002000FFF7C8FFFF232371E9
:1015C000BFF35F8F10BDC04610B50400FFF7AEFC3F
:1015D00001002000FFF7BAFFFF23A380BFF35F8F56
:1015E00010BDC04610B504000120FFF7ABFC034B53
:1015F000C3189B002360BFF35F8F10BD4000003411
:101600000A4B1968EFF3108072B60A68002AFCD002
:10161000BFF35F8F1B68BFF35F8F00221A6080F3F8
:10162000108840BF002000217047C0468430002051
:10163000F0B5DE4657464E464546E0B587B0EFF377
:1016400005820323012513409D409900B34AB44B02
:1016500054581D60B34B8846A946049329E0A388DB
:101660001BB2002B00DBA5E0A379002B00D0E6E045
:101670000823E05E002800DA0FE1430062691B18CE
:10168000DB00D3189E68DD68731C00D111E1A64B06
:10169000190041449A6A0B69B01A9B1A984200D209
:1016A0000E61A14800F0B4FC8D4200DDF5E000D1F0
:1016B0002BE14B469C4843630823E55E002DCEDBBF
:1016C00062696B0092465B19DB009A4453469E6840
:1016D000DF6800F09DFC8F42C1DC00D10BE1002FE0
:1016E00000DAF0E05246534652691B699346049A69
:1016F000934200D1E1E052460821605E5288000426
:10170000594610439847029003910299039A0B009F
:101710001000134300D1D6E013000A00B61A9F410F
:10172000002806DB804800F073FC029E039F3618F9
:101730004F4153469E60DF6000229A5E002A8EDB96
:10174000530099186069C900411801938B68C968F2
:101750009B46B94200DD82E702D1B34200D97EE761
:1017600008239C46A444059565462281A446019B16
:101770002C0006E053009918C90041188D68C9680B
:10178000AB469B18DB00C318B94206DC00D1C0E0B1
:101790001C000023E25E002AECDA230064469C462B
:1017A00053461A806346059D1D80A3881BB2002BFB
:1017B00000DA59E72269EFF3108172B61368002B43
:1017C000FCD0BFF35F8F0123A7885B42A3803FB2A9
:1017D0002369BFF35F8F00221A6081F31088002F06
:1017E00000DA41E72300083322009A4666697B004D
:1017F000DB19DB00F318996850468C460824115F0A
:10180000DD68002910DB019306E0AB424DD00023D8
:10181000E15E2000002906DB4C006418E400341966
:10182000E368AB42F1DD019B078000201F5E198059
:10183000002FDCDA1400A379002B00D118E7002375
:10184000A37126000823E15E08364B1C25D0080052
:10185000A246656902E03E004B1C1AD04B005B18A3
:10186000DB00EF180A008C46E95E7B881BB2002B78
:10187000F1DA01235B42DC17BB60FC60824205D0D9
:10188000534631801B893B8053461A8160464B1C6E
:10189000E4D15446002800DBEFE640BF07B0F0BCBF
:1018A000BB46B246A946A046F0BDA3686345AED983
:1018B000B9E76B1C00D0EAE6F3E65B4658461B69C5
:1018C000984700281BD153461B8822692381EFF3D8
:1018D000108372B611680029FCD0BFF35F8F5146A8
:1018E00062880A8022696580BFF35F8F00211160E2
:1018F00083F31088B3E6864200D8F0E6AFE65B4695
:101900001A685B6802920393FFE6864200D8D0E62D
:10191000C3E7B34500D83BE73FE7C0461C2F002094
:101920003C700540311600100040054070B52E4C4B
:101930002569002D04D00A212C48FFF707FE70BD51
:101940002B4E0321300000F03FFBE660FFF7EEFA7C
:10195000284B03229C46D02322701B061B680121C2
:101960006370254B6044A3600F2380002061022038
:10197000638063694942A180198002311986473129
:101980001D83585218315A5275325C3999521832A7
:10199000013199521832013199521832013199525C
:1019A000083518329D5202311832995218320131DD
:1019B0009952183201319952183201319952183224
:1019C000013199521832013199520C4B0C49DC60AB
:1019D00001303562FFF70EFB01210320FFF7E4FA27
:1019E000084B1D60A7E7C046181200208430002075
:1019F0000040054040000034FFFF10001C2F002075
:101A00003116001038600540004870471812002059
:101A1000F8B5050018200F0001F096FA041E3ED01C
:101A20001821380001F0AEFA01216061280000F0B1
:101A3000DFFAE5600600FFF779FAD0222670120679
:101A40001268184B62709C460122BBB2524260443D
:101A5000800063819B1820612281A2806380002F17
:101A60000BD079006269C919C9000F4B891813801E
:101A7000013318329BB28A42F9D10127B7400B4B90
:101A8000B20030000A492F62D450FFF7B3FA0121A7
:101A90003000FFF789FA074B9C4665442F60200011
:101AA000F8BDC04640000034FFFF00001C2F00209E
:101AB0003116001038200000114B70B50400984218
:101AC0001DD001220F4905788C46AA40C368012128
:101AD00063441A602800FFF767FA0B492800FFF7F4
:101AE000ADFB280000F07AFA00212278074B6069EC
:101AF0009200D15001F068FA200001F065FA70BD43
:101B00001812002038300000311600101C2F002061
:101B1000F8B51F0008AB1B7804001600002B08D195
:101B200000F07EFA32003B00121A8B41002B00DAE3
:101B300052E02269EFF3108072B61368002BFCD0DC
:101B4000BFF35F8F0223E15E63694A005218D2003F
:101B50009B182269002936DB1D886580BFF35F8FE3
:101B60000025156080F31088069A9E60DF601A6178
:101B7000079A5A615A8801325204520C101C002AEA
:101B80001FD082B25880080410432669EFF31087F3
:101B900072B63268002AFCD0BFF35F8FA2881A8029
:101BA000A1802369BFF35F8F00221A6087F310883A
:101BB0000A4923788C4601329A40E36863441A60EC
:101BC000F8BD0120DDE7BFF35F8F0023136080F3D2
:101BD000108801204042F3E70020F1E73C2000009C
:101BE00070B501000469EFF3108C72B6206800280C
:101BF000FCD0BFF35F8F02200D5E4C696800401976
:101C0000C00024180869002D36DB26884E80BFF3FB
:101C10005F8F002606608CF31088E3606388049869
:101C2000013320615B0405985B0CA26060611A1CA3
:101C3000002B1FD093B22804628018430A69EFF387
:101C4000108C72B61368002BFCD0BFF35F8F8B88AB
:101C500023808D800B69BFF35F8F00221A608CF3A5
:101C600010880B7801329A40CB6808498C4663444F
:101C70001A6070BD0122DDE7BFF35F8F00230360B0
:101C80008CF3108801204042F3E7C0463C2000005E
:101C900010B543890A1493421ADD53009B18426918
:101CA000DB00D3180469EFF3108C72B62268002AA7
:101CB000FCD0BFF35F8F5A88090494B2090C8A42A2
:101CC00008D00369BFF35F8F00221A608CF310887D
:101CD000002010BD8022120214435C80012302699F
:101CE0008371BFF35F8F002111608CF3108804496A
:101CF00002788C469340C268012062441360E8E792
:101D00003C20000040787047F0B506000F00062424
:101D10006442E517C646A4197D4100B582B08D42E4
:101D200014D811D000F07CF922002B00121A8B413C
:101D3000002B15DC002B44D03000390000F0AEF948
:101D400002B080BCB846F0BD8442EBD90024002527
:101D500000F066F922002B00121A8B41002BE9DDFE
:101D600000F05EF922002B00121A8B41002B0ADBD7
:101D700000230193144B2200009314482B00FFF71B
:101D80002FFF0130D8D0A04629000024104A114866
:101D9000536A994204D8956A4545CDD29942CBD130
:101DA0000568EFF3108C72B62B68002BFCD0BFF3E4
:101DB0005F8F0368BFF35F8F1C608CF3108820BFB8
:101DC000E6E7002AB8D0CBE7011600101812002071
:101DD0000040054084300020F0B5C64600B582B012
:101DE000040000F01DF9FA2206000F002000002375
:101DF0000021920001F02AF88019794104000D1E9B
:101E000002DA01242E4D644206267642F71736196F
:101E10006F41AF4214D811D000F002F932003B00FC
:101E2000121A8B41002B15DC002B46D02000290014
:101E300000F034F902B080BCB846F0BDA642EBD940
:101E40000026002700F0ECF832003B00121A8B410C
:101E5000002BE9DD00F0E4F832003B00121A8B4160
:101E6000002B0ADB00230193164B32000093164827
:101E70003B00FFF7B5FE0130D8D000233900B04653
:101E80009C46124A1248536A994204D8966A4645BB
:101E9000CCD29942CAD10668EFF3108772B6336884
:101EA000002BFCD0BFF35F8F0368BFF35F8F6646E4
:101EB0001E6087F3108820BFE5E7002AB6D0C9E787
:101EC000FFFFFF7F011600101812002000400540A0
:101ED00084300020F0B5CE46474680B504000D00A2
:101EE00083B0EFF3058399460F00002B42D1314EAA
:101EF000A0463378F06804339B00816A1B58601A4F
:101F00005B1A984212D320BF2B4900204B6AAB4288
:101F100007D38A6A5B1B591E8B4141468A42404166
:101F2000184303B0C0BCB946B046F0BD00F078F825
:101F300022002B00121A8B41002B28DB4B46019309
:101F40001E4B2200009330002B00FFF749FE011EBC
:101F50001DDD194B5A6AAA422AD39B6A9C4225D896
:101F60003000FFF795FE144A0020536ABB42D8D3D5
:101F7000926ACFE7104900204B6AAB42D1D38A6AFC
:101F80005B1B591E8B41A24240411843C9E70A4AD4
:101F90000020536ABB42C4D300204146926A5B1BB7
:101FA0008A4240415A1E93411843BAE7AA42D7D108
:101FB00020BFD5E718120020004005400116001090
:101FC000004870470040054010B5024A0248FEF73D
:101FD0002BFF10BD24C500104821002010B5034B75
:101FE00001001800FEF786FF10BDC0464821002002
:101FF00000B5054B83B00093002203230348FEF78E
:1020000035FF03B000BDC04648C500104821002080
:102010000300416A0A00986A596A8A42FAD17047F5
:10202000034B596A0A00986A596A9142FAD170477B
:102030000040054070B504000D00174A536A1900AE
:10204000966A536A8B42FAD13000190024184D4128
:10205000AB4216D813D0104B2A005B6A9D4203D9BD
:102060000D494B6A9342FCD3934207D10A4A02E0DE
:10207000516A994202D1916AA142F9D370BDA64238
:10208000E9D9054B5B6A1C005A1CEFD001220124E0
:102090006442E5175242E3E700400540064A536AAE
:1020A0009942FCD807D1044B02E05A6A914202D10E
:1020B0009A6A9042F9D8704700400540F8B504008C
:1020C00006200D0000F078F9002844D0374B38493D
:1020D000E3185A1E93418022120494465B429B0DE2
:1020E000344A9B0563441360334A136018000A683E
:1020F0009043FBD12D4B314AE31859424B4180218B
:102100005B0049000620995200F056F92900C000F2
:1021100000F01AFB0130C3091ED140270122626280
:10212000A362266BF30722D4E36A254B0620E51849
:1021300000232B60266300F03FF93900800000F097
:1021400003FB7023E26A5A400E3313402B601D4B91
:1021500023630323A364F8BD1B4A93421ED90023C3
:102160001A4A1B4F6262A362266BF307DCD5194B38
:10217000144AE3181A60656AA36A0620AD01ED18D7
:1021800000F01AF9144900F0DFFAAD02010028004E
:1021900000F0DAFA0021FFF74DFFC5E74006800E98
:1021A0009F011A003F180300B9E7C0460080FCBF3A
:1021B00008C0004000E0004000F0004094300020E3
:1021C0002C10000001030000FEFF0000FFFF0000D4
:1021D000C0FF3F00303000004E0E0000F8B5DE4674
:1021E0004E4657464546E0B58B4605000A9918000D
:1021F000160000F0A9FA0A9B6C001F02324B64190A
:102200009C46A4006444636881469F4200D967608D
:102210002B1FDBB29846012B30D9C02380229B01B3
:10222000E31812011A60294BAD0059599A4600294A
:102230001BD17301E026226853401E408023424692
:102240005B01E3181E60012A30D9802380229B01A4
:10225000E31812011A6053464A4667605A51F0BCAF
:10226000BB46B246A946A046F8BD586900F06CFAD4
:10227000013043001B18033BFDD2DAE75B46012B1C
:10228000CBD1C02303229B01E3181A60023AA36852
:102290001A42FCD07301E0262268AD0053401E4074
:1022A00080230A4A5B019246E3181E605A46216861
:1022B000514003220A401A6001225B469A40A368FB
:1022C0001A42FCD0C1E7C0460080004050210020E7
:1022D000F0B546464F46D646C0B51F00344B4400C5
:1022E0009C462418A4006444636888461600FF2BAB
:1022F00002D880235B006360031FDBB29A46012B88
:1023000030D9C02380229B01E31812011A60294BA7
:1023100085005959994600291BD17301E02622688E
:1023200053401E40802352465B01E3181E60012A81
:1023300030D9802380229B01E31812011A60802388
:102340005B0063604B465F51E0BCBA46B146A846AD
:10235000F0BD586900F0F8F9013043001B18033B49
:10236000FDD2DAE74346012BCBD1C02303229B01E8
:10237000E3181A60023AA3681A42FCD07301E026FF
:102380002268850053401E4080230A4A5B01914623
:10239000E3181E6042462168514003220A401A6039
:1023A000012342469340A2681342FCD0C1E7C046D5
:1023B0000080004050210020014B8000C058704731
:1023C00050210020F8B5040021481E0017000D0020
:1023D00000F0BAF90100380000F0B6F9069B3604A7
:1023E0001B031E432368002B20DB1A4B1A49E318FA
:1023F0005A1E93418022920194465B421B0B174A5E
:102400001B0363441360164A13601F000A68974356
:10241000FBD1144B2560E2182123A06013602368D0
:10242000002BFCDA0823E6601360F8BD3F23226826
:102430001340AB42D9D1A3681B051B0D8342D4D1F5
:10244000EE22E368D2021340B342CED1EDE7C0469C
:10245000001BB7000040FDBF08C0004000E0004086
:1024600000F00040043000008023024A9B000B4330
:10247000D362704700800540002310B50100988AA0
:102480001B8B984710BDC046162310B50100188855
:1024900002331B88984710BDF8B54746CE4680B535
:1024A0000F1E18D01423994604330400002501267A
:1024B00098464B461888434621681B88984701C4B4
:1024C000431E984101350640AF42F2D13000C0BCF6
:1024D000B946B046F8BD0126F8E7C046AA23064A29
:1024E0001B0113602F230549D360054B1960536806
:1024F000002BFCDA7047C0460040024000B0FA00F2
:10250000006002407047C04610B50148FEF75EFC0F
:102510005CC5001070B5074D074EB54209D20024C6
:10252000013E761BB60808CD984723000134B3421C
:10253000F9D170BD60C400109CC4001070B5074D87
:10254000074EB54209D20024013E761BB60808CDDD
:10255000984723000134B342F9D170BD94C40010F0
:102560009CC40010054B064A06491A60064A074BF0
:102570001A6010000B689843FBD1704700E00040E0
:10258000BFCDFBFE08C00040FE7F3C0000F00040D5
:10259000044BDB6C002B03D18022034BD2021A6068
:1025A0007047C046000011504C201150044A054BA2
:1025B0001A60054A1368DB018033FBD17047C046BF
:1025C000FFFFFF0100F0004008C000404022034B25
:1025D0009A675A671A67DA667047C04600F001408A
:1025E00010B5FEF7C1FC10BD70B5044D044CA968D0
:1025F000C022200000F006FDAC6070BD00ED00E0E0
:1026000000000020002310B5294C82B0A367FFF71B
:1026100065FF0122274B1A60636C012BFCD103225A
:10262000254B1A60224A936B012BFCD10133009396
:102630000121224A22480433FFF7C4FE0523012169
:102640000093204A2048FFF7BDFE0022022104200B
:102650001E4BFFF73DFE0022012105201C4BFFF71A
:1026600037FE0022002107201A4BFFF731FE00221F
:1026700000210820174BFFF72BFE8023DB0000937F
:10268000002200210920134BFFF7A8FD0022104B68
:1026900000210620FFF71CFE0420FFF78DFE0E49E7
:1026A00000F052F801000020FFF7DEFE02B010BD7E
:1026B000008000403CB0004030B00040002F68591E
:1026C00000800240008C864700C00240001BB7001B
:1026D00040597307006CDC0240420F00014804219E
:1026E000014B18473012002099240010014B9B68C1
:1026F0001847000030120020124A936F9B0815D231
:102700009066D166002905D0FFE7FFE7FFE7516F2C
:10271000106F704704B580210906C2175140002888
:1027200000D0C84309F044FE002104BDF0B5146E8A
:10273000556E576F166FFFF7E3FF146655665767C0
:102740001667F0BD000000D0114A936F9B0813D2AA
:1027500010665166002905D0FFE7FFE7FFE7516FDC
:10276000106F704704B5002801D00020C04309F065
:102770001FFE002104BDC046F0B5146E556E576FA4
:10278000166FFFF7E5FF1466556657671667F0BDCD
:10279000000000D094464A4A926F9208624601D2E5
:1027A00028E0C046F0B5464E346E756E776F366FD2
:1027B00000F020F89446424A14665566576716673B
:1027C0006246F0BD94463E4A926F9208624601D23C
:1027D00054E0C046F0B53A4E346E756E776F366F82
:1027E00000F04CF89446364A1466556657671667EB
:1027F0006246F0BD002B24DB11D000293EDA00B583
:10280000C943404200D1013100F038F8C943404289
:1028100000D10131DB43524200D1013300BD002A17
:10282000EBD1002801D1002905D00020C90FC9072C
:1028300001D1C043410800B509F09AFD00220023F0
:1028400000BD00B500290ADBDB43524200D1013351
:1028500000F014F8C943404200D1013100BDC94322
:10286000404200D10131DB43524200D1013300F03C
:1028700005F8DB43524200D1013300BD002923D1CA
:10288000002B18D1002A0CD0BC460D4F38667A6652
:1028900000210023FFE7FFE7FFE77A6F386F674605
:1028A0007047002801D00748010000B509F060FD1D
:1028B0000022002300BD02000B0000200021704711
:1028C000000000D0FFFFFFFF002B00D0BFE0130C83
:1028D00028D1002AE7D080B4114F39667A66FFE725
:1028E000FFE730B4040C7B6F396F1B0423433B6656
:1028F0007A66FFE7FFE7FFE7C04684B27B6F3D6F74
:102900001B0423433B667A66FFE7FFE7C0460023CC
:102910002C042D0C7A6F386F00196941B0BC7047D8
:10292000000000D0F0B594460025140E01D112022B
:102930000835140F01D112010435940F01D1920012
:102940000235D40F01D152000135D40B0134254F8B
:102950007C66254C3C660E0C93B2FFE7FFE7FFE771
:102960003C6F6643360C7703BE467343DF0B5B0454
:10297000C01AB941130C7343DB18C91ACE08664359
:10298000360CB64493B273431F0F1B01C01AB941F2
:10299000130C73431F0B1B05C01AB941860D8F0220
:1029A0003E436643360C092D24DB520A7243801ADB
:1029B0007703460A6643360C16235B1BDE40DF4076
:1029C000BF1964466643821B704604350633010016
:1029D000D940A840C01900D30131A24206D2002339
:1029E000F0BD0000000000D0FFFFFFFF121B013010
:1029F000F3D3F1E709277F1BFE406446A2B272437E
:102A0000801A00D20139220C7243130C1204821A6C
:102A100099410B007046043513370100F940A84076
:102A2000801900D30131002B02D1A2420AD2F0BD9D
:102A3000013000D30131121BFAD2013BF8D1A2427E
:102A400000D2F0BD013000D30131121BF7E7F0B521
:102A50001C0C00D080E00CB400251C0A04D11B0221
:102A6000160E3343120208351C0B04D11B01160F3E
:102A70003343120104359C0B04D19B00960F334362
:102A800092000235DC0B02D192185B4101351C002B
:102A9000971864410134464F7C66464C3C660E0CE8
:102AA000FFE7FFE7FFE7C0463C6F6643360C77035E
:102AB000BE4697B27743C01B00D20139C01B00D27B
:102AC00001399FB27743C91BC91B170C77437E049A
:102AD000FF0B801BB941CE086643360C0C2D33DB4F
:102AE000B644120B1F053A431B0B97B27743C01B2A
:102AF00000D201399FB27743C91B170C77433E04BC
:102B00003F0C801BB941860D8F023E436643292747
:102B10007F1BFE400C3D7746AF40BF1930BCA2B2D0
:102B2000ABB272437343801A9941220C7243130C67
:102B30001204801A994102000B000137001BA941C1
:102B4000F9D2781E0021F0BD0C277F1BFE4077468E
:102B50007F0BAF40FF19E0E700245D1C07D0144F46
:102B60007D663966FFE7FFE7FFE7FFE73C6F95B259
:102B70009EB265436643401BB141150C1E0C654374
:102B8000664336042F0C3E432D04401BB14199424D
:102B900004D202000B0020000021F0BD01D19042C0
:102BA000F7D3801A994101349942F2D3F6E7000035
:102BB000000000D0FFFFFFFF48404140484018B4EC
:102BC000134B5B68019308BD18B4114B1B6801934C
:102BD00008BD94460F4A926F920805D2624618B417
:102BE0000B4BDB68019308BD0A4AF0B5146E556EB5
:102BF000576F166F6246FFF7F2FF064A1466556676
:102C000057671667F0BD18B4014B9B68019308BD68
:102C1000F8190020000000D0FFB55040424050405D
:102C200059404B40594000E0FFB5154F4C00640D32
:102C300003D0BC4204D10C0314D80020090D0905AF
:102C40005C00640D03D0BC4204D11C030AD80022EE
:102C50001B0D1B0501264B4009D44B4003D58B426D
:102C600000D18242FFBD9942FCD19042FFBD0B438F
:102C7000DB1803431343F5D0C9434918FFBD0000D7
:102C8000FF07000000B5FFF7CFFF804100BDC04641
:102C900000B5FFF7C9FF01D9002000BD012000BD2C
:102CA00000B5FFF7B9FF01D9002000BD012000BD2C
:102CB00000B5FFF7B1FF804100BD012040054A008B
:102CC000121804D85A00121801D8002070470120A9
:102CD000704700000021002805D17047C117484007
:102CE000401AFAD0C90713B5064B1B6898470CBCAD
:102CF000441CA2401005120B0349091B0905194386
:102D0000114310BD802F00201F04000010B54C009F
:102D1000620D8023D218DB00D21A5B057E2A10DDFB
:102D20009E3A13DACC170903490819435242D1409D
:102D3000640001341532202A05DAD040084360438C
:102D400010BD002010BD0846604310BDC80FC0185C
:102D5000013810BD18B4024B5B6A019308BD000036
:102D6000F819002018B4024BDB6F019308BD000076
:102D7000F819002010B50148FEF728F868C50010C2
:102D8000132370B51D78012D19D014DD1D48FFF7F0
:102D90007BFB06001C48FFF777FB1C4C80223100B0
:102DA000200000F02FF9022D06D01948FFF764FB30
:102DB000184B186070BD154C174BA364F5E7174B03
:102DC000124C23606360A360E36023616361A361CD
:102DD000E36123626362A362E36223636363A363C9
:102DE000E36323646364A364E36423656365A365A9
:102DF000E36523666366A366E36623676367A36789
:102E0000E367D9E75344000053460000F819002057
:102E10004C330000802F0020212E0010752D001053
:102E200007B5604601880A0A0230DF2AFAD1C9B222
:102E3000820804D3028840880004104300E0006840
:102E4000014A5050039007BDF819002051434343F5
:102E5000C9188C46110C83B24B4310B4040C614367
:102E600092B280B2504362431C041B0C001910BC88
:102E700059411304120CC0185141614470470000BD
:102E80004840414048400E4B5B6818470C4B1B685C
:102E900018470C4A936F9B0802D2094BDB6818470E
:102EA000F0B5146E556E576F166FFFF7F6FF054AB3
:102EB0001466556657671667F0BD014B9B68184747
:102EC000842F0020000000D0014B5B6A18470000EF
:102ED000842F0020014BDB6F18470000842F002057
:102EE00010B50148FDF772FFECC60010132310B5B2
:102EF00010481C78FFF7C8FA0100012C0AD003DD46
:102F000080220D4800F07EF80C48FFF7B5FA0C4B14
:102F1000186010BD084C5422200000F073F8220005
:102F2000084980322368002B00D121600434944288
:102F3000F8D1E9E753460000842F00204C3300000D
:102F4000802F0020E12E001070B504000A4E3000E2
:102F500009F076FA200008F06DFC0500300009F059
:102F6000FFF9002D05D0054B2C199C4201D82800F3
:102F700070BD0348FDF72AFF081800200000042058
:102F800080C50010F8B506000C000C4F380009F0A1
:102F900057FA2100300008F0EDFB0500380009F079
:102FA000DFF97443002D05D0054B2C199C4201D844
:102FB0002800F8BD0348FDF709FFC04608180020A7
:102FC0000000042080C5001070B50400054D2800E5
:102FD00009F036FA200008F037FC280009F0C0F9A3
:102FE00070BDC0460818002001480421014B184755
:102FF0004012002099240010014B1B681847000064
:1030000040120020014B5B6818470000401200206E
:103010007047C046F8B55746DE464E464546E0B5D1
:1030200099460A9B07009A460D9B884693460B9C3F
:103030009B073BD10C9B9C423DD21E1B0B94150061
:103040000C005E442A004B46013521002020B84781
:10305000B542F7D1A0460B9C002C20D0454636192E
:103060005346321B013C185D29004B46B847002CE3
:10307000F6D12B00350098460D9B9B070FD55B467C
:10308000EC1A0C9BA3420AD9464698462A004B46A6
:10309000310020200134B84701354445F6D32800DB
:1030A000F0BCBB46B246A946A046F8BD16001500C6
:1030B000002CD3D1E0E716001500002CCED1EEE7AE
:1030C000F0B54546DE4657464E46E0B585B09C46CF
:1030D00010AB1B78149F934698460F9C129E139D2D
:1030E000BB074CD4002D42D1B44248D201233B400F
:1030F00099460E9B013B9A46302304E05246013428
:103100001355A64201D9202CF8D14B46002B00D1F3
:1031100083E00E9B013B99463023A54205D82EE063
:103120004A4601341355AC4229D0202CF8D1FB0675
:103130000CD57B0554D4A64263D0A54261D0119B27
:10314000102B50D0022B57D0202C32D120230193AA
:103150000E9B5A460093039763460295FFF75AFF6A
:1031600005B0F0BCBB46B246A946A046F0BD01235F
:103170003B40994601233B422AD1B442B9D3FB06D6
:103180001CD57B05DBD4002CD5D1119B102B5BD03B
:10319000119B022B6BD0302301240E9A13704346EF
:1031A000002B10D17B073ED52B260E9A631C16559B
:1031B000CDE72300013430260E9AD654202CC5D0FA
:1031C0004346002BEED02D260E9A631C1655BEE703
:1031D0004346002B2FD0013DB44200D289E798E747
:1031E000119B102BB2D1BB0637D5202CAED0582363
:1031F0000E9A13550134A7E7202CA7D023000134E1
:1032000007E0631E012CC0D0119A102A31D0022A87
:10321000D1D162260E9AD65496E7FB06CED57B0511
:1032200000D488E78BE723003E0790D520260E9A2E
:10323000013316558BE70C233B405A1E9341ED1A80
:10324000B44200D255E764E7BB060ED478230E9A49
:103250000224137030235370A1E7202C00D175E7AE
:1032600078230E9A135501346EE75823EFE7603345
:10327000EDE70E9AA61E91464E44BA0602D5582294
:10328000327098E77822327095E7C04610B5002872
:1032900000D110BD01F0FCFCFBE7C0460B0010B5EF
:1032A000002802D049681B68984710BDF0B5574602
:1032B000DE464E464546E0B595B083460F00924641
:1032C00098461E9A1F9B10001900209EFFF7F5FCE0
:1032D000002800D0EAE11E981F990122C54B5242F6
:1032E000FFF7D0FC002800D014E11E981F9901229E
:1032F000C14B5242FFF7DCFC002800D0E9E01E98E9
:103300001F990022BD4BFFF7D3FC002800D0C8E076
:103310001E981F990022BA4BFFF7B4FC002800D07A
:10332000BFE01E981F9900220023FFF7ABFC002886
:1033300000D0E4E000230B93229B5B0500D406261B
:103340000024302307E0172106AA01345218135530
:10335000013E202C01D0092EF5D81E981F99FFF7A9
:10336000D5FCA84BF2009B181A685B680500089210
:103370000993FFF7B3FC02000B001E981F99FFF79B
:103380001EFC089A099BFFF73EFC06900791FFF789
:10339000E1FC8146FFF79EFC02000B0006980799AE
:1033A000FFF70DFC0022984B06900791FFF780FC79
:1033B000002800D10DE101239C46E1444846FFF777
:1033C00089FC02000B0008980999FFF761FC0028AE
:1033D00002D0002399460135002E00D1D9E0069590
:1033E0004D46B94614E006AA944617230A216344C1
:1033F000280001341F19FFF7A7F930313970280070
:103400000A21013EFFF7A0F9092D00D817E10500B8
:10341000202CE8D14F46069D20240CAE06AA172387
:103420009446634499465B46B34606930FE04B4689
:1034300028000A210134E618FFF75EF93031280030
:1034400031700A21FFF758F9051E00D1E4E0202C65
:10345000EDD1069B5E469B460323229A1340012B27
:1034600018D1219B002B15D00B9B002B00D1FDE028
:10347000219B013B2193202B0CD93023219A07E07B
:10348000172006A9013409180B55944200D3CCE04B
:10349000202CF5D1229B01940393219B009602934B
:1034A00022E0229B52460493219B39000393584605
:1034B0001E9B1F9C029600930194434600F04AF91C
:1034C0000400200015B0F0BCBB46B246A946A04699
:1034D000F0BD229B5B070FD403224C4B2299019233
:1034E0000391219900930291434652463900584670
:1034F000FFF790FD0400E4E70422454BEEE71E9A37
:103500001F9B00200021FFF75AFB01231E901F91F3
:103510000B9311E7229B54469B0711D1219B042B4F
:103520000ED9219B55469C465E46043C64442A00C5
:103530004346013539002020B047A542F7D1B346B4
:10354000344D26002B1F99465B46A3461C003200D3
:10355000E87843463900013DA04701364D45F6D194
:1035600023005C469B46229B04349B07A9D5534607
:10357000219AE31A9A42A4D95E46150022004346D6
:1035800039002020B04753460134E31A9D42F5D854
:1035900097E72800FFF7A2FB02000B001E981F9977
:1035A000FFF70DFB0022184B06900791FFF76AFB0F
:1035B0000CAE002800D031E7069807990022124B84
:1035C000FFF776FB002800D028E7012301359D4353
:1035D00024E70022069807990B4BFFF753FB0028BE
:1035E00000D0F9E64B46002B5CD101239C46E14418
:1035F000F2E6C046FFFFEFFFFFFFEF7F65CDCD4155
:1036000065CDCDC108CD00100000E03FD8C5001049
:10361000D0C50010E0C50010069B5E469B46032304
:10362000229A1340012B00D181E0202C00D131E7F8
:103630000B9B002B27D02D23335501342AE74F460F
:10364000069D202C00D1E7E63022331907E0172031
:1036500006A9013409180A55202C00D1DCE6A34242
:10366000F5D12E220CAE0134F254D7E60C23229A67
:10367000134257D0219B013B2193A34200D9FCE682
:10368000202C00D106E7229B5B0703D52B23335563
:103690000134FFE6229B1B0700D4FBE620233355B1
:1036A0000134F7E6DB0700D496E69EE7229B5546F9
:1036B0009B0711D1219B032B0ED9219B54469C467D
:1036C0005E46033D65442200434601343900202014
:1036D000B047AC42F7D1B346B9465F461C4EEC1C2E
:1036E0002A00B078434649460135B847013EAC420E
:1036F000F6D1229BBB464F469B0700D4E1E65346DA
:10370000219AE31A9A4200D8DBE65E4615002200B1
:10371000434639002020B04753460134E31AAB42F8
:10372000F5D3CEE6219BA34200D9A6E6B2E6219BC3
:10373000002B00D179E70B9B002B97D0219B013BFD
:1037400021939C4200D298E6202C00D073E7A1E69A
:10375000DCC50010F0B5DE4657464E464546E0B59E
:1037600099B081468B4692469846229A239B100038
:103770001900FFF7A2FA002800D0CAE02298239986
:103780000122824B5242FFF793FA002800D0C0E09A
:103790002298239901227E4B5242FFF773FA0028A8
:1037A00000D0B6E02298239900220023FFF76AFA9E
:1037B000002800D0C9E1229B239C08930994089813
:1037C00009998023269ADB001A400D928022269CBC
:1037D0001201144022000B94269C07000E001C428C
:1037E00000D0ADE00B00034300D0D5E0002A00D0AC
:1037F0000AE2220006332493022313400C9302238F
:10380000134200D002E2259B042B00D20FE2043BBE
:103810000B93002304250A93002222982399002366
:10382000FFF730FA002800D003E25A4B269A1340E3
:1038300004930B9B0393249B0293089B099C009386
:1038400001945946434652464846FFF72FFD020071
:103850002020269B1F27034059424B415B421840C2
:10386000531C0893594643464530C8470A9AD31714
:10387000D4185C40D30F0A936B1E0B9308AB9C4685
:103880000025674401E0202D0FD020000A21FEF71B
:103890005BFF01357E193031317020000A21FEF7BF
:1038A00053FF26000400092EEDD8052306930B9B39
:1038B00059460593002304930A3303930A9B484611
:1038C000029310AB0093089A43460195FFF7F8FB6B
:1038D0000C9B002B2DD05346C41A259BA34228D9FC
:1038E0004D465F4681461E00534639001A19202076
:1038F00043460134A847A642F6D853464846259980
:10390000C21A01320023914200D386E10130181817
:103910000FE0269B0493259B0393249B0293229BF9
:10392000239C009301944346524659464846FFF76C
:10393000BDFC19B0F0BCBB46B246A946A046F0BDDE
:1039400001432BD10B9B2200002B00D154E7002315
:103950000A93249B0A9A0024934200DD85E1229871
:10396000239900220023FFF78DF9002800D035E1CC
:10397000269B084A02941A408023DB0013430493D9
:10398000259B0393089B099CCBE7C046FFFFEF7F75
:10399000FFFFEFFFFFF7FFFF06232493B44B7000F8
:1039A0009C46400D6044FFF799F9B24AB24BFFF7CD
:1039B0002AF9B24AB24BFFF707F93603B14B360B7F
:1039C000334304000D00380019000022AE4BFFF70E
:1039D000F6F8AE4AAE4BFFF716F902000B002000D6
:1039E0002900FFF7F1F8FFF791F90A90FFF776F950
:1039F000A84AA94B04000D00FFF705F90022A74BC8
:103A0000FFF7E2F8FFF782F9A54A0600A54B200070
:103A10002900FFF7F8F8040030000D000C96FFF7BE
:103A20005DF9A14AA14BFFF7EEF802000B00200060
:103A30002900FFF7C4F802000B0006000F00FFF793
:103A4000E2F8320004000D003B0030003900FFF7BF
:103A5000BBF800220E900F91954B20002900FFF734
:103A6000B8F80022934BFFF7AFF802000B002000DC
:103A70002900FFF7AEF800228F4BFFF7A5F80200F0
:103A80000B0020002900FFF7A4F80D00802104009E
:103A900032003B000020C905FFF791F802000B003F
:103AA00020002900FFF790F802000B000E980F99F4
:103AB000FFF78FF80022734BFFF786F87F4B0C9CC3
:103AC0009C46644400222305FFF79DF806000F0082
:103AD00002000B0008980999FFF7D4F800280AD0D3
:103AE0000A9B3000013B39000A930022714BFFF71B
:103AF00070F806000F000A9A330063323900C62AB4
:103B000012D802222698042510400B9A0C90002A05
:103B100025D1259B042B05D9002800D0A1E0259BA9
:103B2000043B0B93042541E00222269810400B9A97
:103B30000C90002A12D1259B052B76D9002872D132
:103B4000259B0525053B0B9334E080221206944605
:103B5000229B0893239B6344099330E605250B437E
:103B600000D1F6E608980999554A564BFFF798F8A0
:103B7000002808D0089809990022534BFFF782F8D3
:103B8000002800D0E5E6249B002B1CD00D9B002BC9
:103B900019D0249B013B2493259BAB4204D90C9B59
:103BA000002B5AD002230C9300230B930A9B002B6B
:103BB00000D131E60898099932003B00FFF709F877
:103BC0000890099128E6259BAB42EDD90C9B002B70
:103BD00043D000230B9302330C93E7E78020269B0E
:103BE0003A4A00061A40802384460294089C099DA4
:103BF0002900DB0013430493259B614422000393B7
:103C00000B00009201938EE60524A8E600230B9397
:103C10000A93023304250C93FEE553468C46013B80
:103C200063441B1A72E602230C930525C2E70423A2
:103C3000EDE58020089E099F000639008446269AFB
:103C4000224B6144134004930B9B32000393249B4B
:103C500002930B0000920193F3E5259B5B1B0B93F2
:103C6000A4E7022304250C93A0E79C1A013C76E606
:103C700001FCFFFFFB799F501344D33FB3C8608B17
:103C8000288AC63F0000F03F0000F83F61436F63A1
:103C9000A787D23F71A379094F930A400000E03F04
:103CA0001655B5BBB16B0240EF39FAFE422EE63F26
:103CB00000002C400000244000001840FF030000DA
:103CC0002D431CEBE2361A3F80842E41FFF7FFFFA5
:103CD000F0B5DE4657464E464546E0B5A5B01E0057
:103CE0002E9B92460C93CD4ACD4B80468B461A6054
:103CF000002900D1EAE1002330789946002800D15C
:103D0000ECE1C84B4C460B93C74B454657460E93C8
:103D10000AE0631C984622003B005946A8474446E7
:103D20003078002800D187E001362528F1D108231A
:103D30009A46043B9946023B9846013B00229C462A
:103D40000D943078711C0300203BDBB2102B03D89C
:103D50000B9C9B00E3589F460300303B89460D9C1B
:103D6000092B3AD9002398462A2800D1C1E0002324
:103D70009A462E284BD00300683BDBB2122B1ED88C
:103D80000E999B00CB589F4663460E001A43D8E716
:103D900043460E001A43D4E74B460E001A43D0E7C1
:103DA00010230E001A43CCE753460E001A43C8E70F
:103DB00080235B001A43FF3B9C467078E1444E46EB
:103DC00067284FD82428A4D90300253BDBB2422B17
:103DD0009FD896499B00CB589F46002394461E00CF
:103DE00000E00131B3009B195B001E180878303EDB
:103DF0000300303B092BF4D90123624689469C46D7
:103E00000023B0469A460E00E1442E28B3D130215B
:103E1000802049428C46C000024370784B4684445F
:103E20006146092900D86CE12A2800D17AE10123F2
:103E30009C464E46E1449EE7A146A846BA46CA457E
:103E400003D801235B425344994653464A46594698
:103E50000020C047200025B0F0BCBB46B246A946B2
:103E6000A046F0BD0300693BDBB20D930F2B00D9D8
:103E70004FE7012199408C466D49894661464B4682
:103E800019400F91634649460B4200D028E10D9B33
:103E90000A2B3AD0072B00D03BE70C9B190008C92E
:103EA0008846002B00D14BE121200243914614A902
:103EB0008C461F220F2162448C4651460D950C9171
:103EC000A24615000F9902E020290CD01300644689
:103ED0001C4020003730092C00D8073801316854C5
:103EE0001A090F2BF0D80C9B54460D9D9A460F9142
:103EF00033E10C9B02CB8846002947DB0C9301235E
:103F00009C4670784E46E14431E70C9B02CB1493FB
:103F10005346002B00D138E19C4608780B000C90EA
:103F20008C44002801D100F098FC894661469446F3
:103F300003E05A780133002A01D08B42F9D1494677
:103F400062465B1A0C900F93530500D520E10223C3
:103F5000180010400D90134200D1CBE30D930B1BC2
:103F6000B1469A465E460C9822003B003100A847B5
:103F700053460134185D0028F6D1B3464E460D9BDA
:103F8000002B00D0C7E1149B0C93C9E60C930123CE
:103F90009C46283849420243884670784E46E144A0
:103FA000E5E670786C2800D17FE180235B001A433E
:103FB000FF3B9C46E14402E780239B001A43012318
:103FC0009C467078E144FAE67078682800D173E185
:103FD00080231A437F3B9C46E144F0E6672800D1EA
:103FE00003E1472800D15AE1452800D15AE1049263
:103FF000072142460C9B0392073352468B4319001C
:1040000002920CC92800009201930C9122003B00FF
:104010005946FFF79FFB040082E6C046D13C0010E2
:10402000D02E002068CB0010ACCB0010F8CB0010D5
:1040300041900000462800D1DBE00492072142466F
:104040000C9B0392073352468B43190002920CC912
:104050002800009201930C9122003B005946FFF783
:1040600025F904005CE6631C984622003B00594693
:104070002520A847444653E60C9B04330D93631C4C
:104080009946920700D422E10C9B220018785946E9
:104090003B00A84743464444012B00D885E2330047
:1040A000B8462E005F4625004C46994622004346FE
:1040B000013439002020B047AC42F7D12C00BB4678
:1040C000350047464E460D9B0C9329E6DB4B307876
:1040D000984600239946002800D012E60024AEE658
:1040E0006F2800D188E000D80BE31023782800D196
:1040F000CFE09A430A239C4600230F930A330D9383
:1041000080E05646B1008919490001330E1818782D
:10411000303E010030390929F4D9B2461E0001337E
:10412000994628E60C9B023602CB8A46C943504684
:10413000C917084082460C933078731C99461AE6DA
:104140001023100098431133184381468020130038
:10415000C0000340024200D1A9E64B460693082363
:1041600005935346049310230393002302930F9B5C
:10417000220001931CAB009359463B002800FEF738
:104180009FFF434604000C93CAE501235B42C3E64C
:104190000F9B534501D953460F930223180010403B
:1041A0000D90134200D1B7E10D93D1460B1B9A46F7
:1041B0003300A1442E0022004D460C98B9465F46BC
:1041C0009B4608E04B463900541CB0475346185DE7
:1041D000002877D022009542F4D15B46BB464F467B
:1041E000A94635004C461E00C9E680231B011A4330
:1041F000FDE620231A4320E708239C4600230F9363
:1042000008330D9380231100DB0019401A4200D1BE
:1042100016E10D239A431000802302009B001A40F0
:104220001492184200D0C2E1802302005B001A40C1
:1042300091460C9A04320F92184200D0B7E243061E
:1042400000D59FE1030600D419E30C9B1B8809935A
:10425000002B00D0FCE110339843002900D1F7E196
:104260000023994643460593534604930D9B0690BD
:1042700003930023D2E0582808D0622867D1022394
:104280009C4600230F9302330D93BBE720231A4370
:10429000103B9C4600230F9310330D93B2E780230D
:1042A0001B011A4320231A43A1E6C0239B001A4393
:1042B000F31C9946B07882E5C0231A43F31C994653
:1042C000B0787CE535005E46BB464F4657E6434630
:1042D000012B00D863E1631E43449A463300B9467C
:1042E0002E005F4655469B46A24622004B460134AF
:1042F00039002020B047AC42F7D135005E46BB46BE
:104300004F46A14654460C9B4A46187859463B00F6
:104310004444A847D7E6A1460F9B984500D832E60B
:104320004444E41A3300B8462E005F4625004C464C
:10433000994622004346013439002020B047AC4260
:10434000F7D12C00BB46350047464E461BE680237E
:104350001000DB0018401A4200D10FE111211800B3
:104360008A430D920D9A802311009B0019408C46C0
:104370001A4269D1802311005B00194089460C99CB
:1043800004310F911A4200D0CAE113005B0600D538
:10439000F0E013001B0600D459E20C9B00229B5E48
:1043A000D9175A184A4092B2D90F0C91002B00D15C
:1043B000F9E1100014AA944642461F231492524673
:1043C0006344A84616944D460400B946B2461F0001
:1043D000159201E0202D0FD020000A21FEF7B4F93C
:1043E00001357E193031317020000A21FEF7ACF919
:1043F00026000400092EEDD8149B4F46A9464546D9
:104400009846159B56469A46169C0D9B0693434626
:104410000593534604930A2303930C9B02934B4644
:1044200001931CAB2200009359463B002800FEF785
:1044300047FE0F9B04000C9372E4C046113000103D
:104440000C239A431000E7E607220C9B07339343A3
:10445000013294469C4462460C920CCBD90F0F91CA
:104460001100194300D191E0D917139112915140D5
:10447000109113995940119110981199129A139B08
:10448000801A99411090119114AA00239446424633
:104490009946149252461F336344A846B246169476
:1044A0004E46109C119DB94615921F0001E0202E2A
:1044B00010D0200029000A220023FEF783F90136DC
:1044C00030322B00BA550D0022000400002BEED133
:1044D000092AECD8149B1094119545469846159BD3
:1044E0004F46B14656469A46169C0D9B0693434648
:1044F0000593534604930A2303930F9B02934B4661
:1045000001931CAB2200009359463B002800FEF7A4
:10451000D7FD0400FFF704FC0F9B984500D8C1E1CC
:104520008023DB000D9343460F9A1B199B1A994673
:1045300033002E004D46B9465F469B460C91220043
:104540004B46013439002020B047AC42F7D14346F6
:104550000C9901330F930B7835000C935E46BB46E4
:104560004F46002B00D10EE50D9B002B00D1F6E449
:10457000002319E60C9B1B781A0015E710239A43B9
:104580000D92EFE60C9B1B78099361E60023994698
:104590000028AAD1002200231092119374E70C9BEB
:1045A0002200187859463B00A8474C468BE50C9AE8
:1045B000FA3BFF3B07329A430133994691444B46FD
:1045C0000C931368526815921A4306D11032904327
:1045D00000220992002900D081E06122810600D5E5
:1045E0004122D2B20A9214AA91460A9A00210A3AAA
:1045F000149242461792524618925A460991B3466F
:104600001F311E000F9B4944BA4619941A95002485
:10461000674698468946159D16901B920AE03032EF
:10462000D2B24B4601341A55A8454AD0202C4AD064
:1046300006000D003A00002330002900FEF7C2F802
:10464000D2B2092AEBD9149B9C466244D2B2E8E765
:104650006123820600D54123DBB20A3B0C9343461B
:1046600014A91F228C46159353466244A046B246B5
:104670004C461797A9461700099D0D9E1490169356
:1046800008E03033DBB201343B55B5420ED3202C69
:104690000CD0050031002800FEF756F8CBB20929EE
:1046A000EFD90C9A94466344DBB2ECE7159B4D4678
:1046B000A14644469846169B564614989A46179F1C
:1046C000D0E5B742B2D9179B57469846189B5E462D
:1046D0009A461B9B09949B461698199C1A9D434623
:1046E0000593534604930D9B069003930023029376
:1046F000099B05E70F9B984500D914E701330F93F9
:104700002DE41023110099430D91692800D0BAE0DF
:1047100080231000DB0018401A4200D122E61DE67B
:104720000C9B1B68DA0F1100002B00D18CE0DA170C
:104730009818504014AA914642461F23149252469C
:104740004B44A046A946169704006546B2461F0092
:104750000C91159201E0202D0FD020000A21FDF7C9
:10476000F3FF01357E193031317020000A21FDF749
:10477000EBFF26000400092EEDD8149B4446984612
:104780000C9BAC461900159B56464D469A46169F03
:104790000D9B0291069343460593534604930A23C7
:1047A000039363463CE6002800D02EE602E60C9B0D
:1047B0001B689946002B03D110339843002938D148
:1047C0006123820600D54123DBB20A3B0C934346AA
:1047D0001693534614A91F228C4617932B0062444C
:1047E000A0464D46B246189799461700149C0D9E58
:1047F000159008E03033DBB201343B55B5420ED39F
:10480000202C0CD0050031002800FDF79DFFCBB215
:104810000929EFD90C9A94466344DBB2ECE7169B66
:10482000149444469846179B56464D469A4615980A
:10483000189F43460593534604930D9B069003939C
:1048400000230293149BEBE50028A1D172E70C9B97
:104850001B68D9175A184A40A6E580231000DB00D0
:1048600018409C460F901A420FD0022003001340BC
:104870000F93104219D00023A1460F934CE50C9BD7
:104880001B680993E4E40A0034E402231800104092
:104890000D90134200D03EE54346002B00D042E687
:1048A000FFF771FB01330F937FE463460D93F3E74A
:1048B00010B50C0084B00394012402A90290009367
:1048C000034813006242FFF703FA04B010BDC0466C
:1048D0009D32001010B5094A0300146884B0002C02
:1048E00008D0012200910648524203A9A0470120A6
:1048F00004B010BD00F016FA0020F9E7D02E002019
:104900008D32001000BEFDE7094A03001068002840
:1049100005D00849C3188B4207D813607047064872
:104920000449C31810608B42F7D901204042F5E7D3
:10493000CC2A002000000420B030002010B5041E56
:104940000DD0FDF76DFB074B1A685B68801A994123
:104950000023054AFDF71EFF20606160A260002071
:1049600010BDC046E819002040420F0010B5FFF707
:10497000C9FFC04670B5FDF7CDFD074D074EB542E6
:1049800009D20024013E761BB60808CD98472300C3
:104990000134B342F9D170BD9CC40010A4C400100E
:1049A000030010B5080011001B68984710BDC046F1
:1049B000F0B5C64600B5437D07000C001600002B7D
:1049C00046D0002A17DD0B780A2B24D00023984606
:1049D000012E13D001252900635C01350A2B26D056
:1049E000B542F8D1464509DCA419013C23780D3BBA
:1049F0005A4253413B7580BCB846F0BD4346E0186F
:104A0000A419F11A013C3B68984723780D3B5A42A0
:104A100053413B75EFE7037D002BD7D102210F48AF
:104A20003B689847012EDFD001239846D2E7631EEA
:104A30005B5C0D2BD4D0884504DA4346C91AE018D4
:104A40003B689847022105483B68A8469847C7E756
:104A50000368110020009847CDE7C04658CD0010EC
:104A6000F0B5C6460B6806000C0000B5802B06D0DA
:104A70005A1C2260E418267180BCB846F0BD0F4B6A
:104A80001D68002D16D00B1D98460D4F02E02D69B4
:104A9000002D0FD02B68002BF9D03B68002B01D0E4
:104AA000AB42F4D1280041462268FFF781FF2D690F
:104AB000002DEFD101220023DBE7C046B42A0020FD
:104AC000C82A0020F0B54546DE464E465746E0B5BA
:104AD00083B091461C0080460D00FDF7A1FA00232B
:104AE000304A12184B41002B02DA01222E4B52425F
:104AF0002E4908008A4607F07BFC07006B1C03D197
:104B0000404607F09BFA0500002C27D0284E294B81
:104B10001C68002C18D04B46002B21D1264B9946FF
:104B200002E02469002C0FD02368002BF9D04B46FB
:104B30001B68002B01D09C42F3D120002A00414683
:104B4000B0472469002CEFD1002F26D1280003B0F4
:104B5000F0BCBB46B246A946A046F0BD174ED6E70C
:104B6000154B99460A239B4602E02469002CEBD0A2
:104B70002368002BF9D04B461B68002B01D0A342C1
:104B8000F3D12A0041462000B0476B465A46200028
:104B9000DA71D91D0122B047E7E7504607F0E0FB84
:104BA000D4E7C04640420F00FFFFFF7F10180020EF
:104BB000B1490010B42A0020C82A0020A1490010E1
:104BC0000A4A1368002B05D10CE01A001B69103249
:104BD000002B07D08342F8D1002902D11869106058
:104BE000196170470029FCD01060FAE7B42A002050
:104BF00010B500F015FA10BDF0B5CE4647460400DA
:104C000080B583B0FDF70CFA2600002736184F4117
:104C1000002F02DA01261A4F76421A4B1A4D994696
:104C200001AB98464B461C68002C03D116E0246962
:104C3000002C13D02B68002B01D09C42F7D1A36825
:104C4000002BF4D00121404698470028EFDD434671
:104C5000187803B0C0BCB946B046F0BD0B4B5A6AD9
:104C6000974207D89B6AB34202D302204042F0E742
:104C70009742FAD101200021FDF7DCF9D2E7C046C6
:104C8000FFFFFF7FB42A0020C82A00200040054013
:104C9000F0B5CE46474680B583B06B460600DD1DB5
:104CA0002870FDF7BDF90023194A12184B41002B5B
:104CB00002DA0122174B524217490800884607F0D2
:104CC00097FB164B81461C68002C14D0144F02E051
:104CD0002469002C0FD02368002BF9D03B68002BEF
:104CE00001D09C42F4D1200001222900FFF760FE90
:104CF0002469002CEFD14B46002B05D1300003B0C6
:104D0000C0BCB946B046F0BD404607F029FBF5E708
:104D100040420F00FFFFFF7F10180020B42A002040
:104D2000C82A002070B5040007F088F901230100AB
:104D3000050001222000FFF7C5FE084B1C68002C6F
:104D400006D06368002B05D098472469002CF8D161
:104D5000280070BD2469002CF3D1F9E7B42A0020A3
:104D6000F0B5CE46474680B5A3B004000D00FDF770
:104D700057F90023274A12184B41002B02DA01226F
:104D8000254B5242254E300007F032FB0023220013
:104D9000019307002B00224801A9FFF789FD214B51
:104DA000804699461C68019B002B1AD0002C2FD0FE
:104DB0001D4D02E02469002C0FD02368002BF9D090
:104DC0002B68002B01D0A342F4D12000019A02A944
:104DD000FFF7EEFD2469002CEFD14B461C68002341
:104DE0000193002C06D06368002B0BD098472469F0
:104DF000002CF8D1002F07D1404623B0C0BCB946E3
:104E0000B046F0BD2469ECE7300007F0A9FAF3E7FB
:104E10000194EFE740420F00FFFFFF7F10180020D2
:104E2000614A0010B42A0020C82A00200FB400B53F
:104E300083B004A901C90191FFF792FF03B008BC38
:104E400004B018477047C04670B5040000200E003B
:104E500001F0D8FE002834D0002001F0EDFE00283B
:104E60002FD0FDF7DDF80023174A12184B41002B15
:104E700016DB164D280007F0BBFA002821D00020D1
:104E800001F0C0FE00280FD101200021404200F0B7
:104E9000E1FB03246442280007F062FA200070BDA1
:104EA00001220B4B5242E4E7002001F0C5FE00282E
:104EB000EAD021003200002001F0CCFE041EEAD12D
:104EC000E7E703246442E9E740420F008C3000200A
:104ED000FFFFFF7F10B5FDF7A3F800230D4A12185E
:104EE0004B41002B02DA01220B4B52420B4C2000AB
:104EF00007F07EFA00280CD001200021404200F08B
:104F0000A9FB002001F0F6FE0028F5D1200007F0F3
:104F100027FA10BD40420F00FFFFFF7F8C300020BA
:104F2000F8B5DE46574680B505000C00FDF778F869
:104F30000023364A12184B41002B02DA0122344B6F
:104F40005242344908008A4607F052FA002803D139
:104F5000C0BCBB46B246F8BD002001F053FE00289D
:104F60004AD00026002C43DD2B4B9B4614E0A919A8
:104F7000002001F0FBFE070001200021404200F06C
:104F800069FB002001F0B6FEFDF74AF8224BF61946
:104F900018605960B4422BDD002001F009FFA71B07
:104FA0000200B84200DD3A00002AE0D101200021D1
:104FB000404200F04FFB002001F09CFE002001F079
:104FC00021FE002814D0002001F0F2FE0028E1D1DB
:104FD000FDF726F85B460F001A685B6800218446DF
:104FE0000E4812184B419F4202D8D3D19445D1D9D3
:104FF000504607F0B5F9ABE700200021064B1860DA
:105000005960504607F0ACF9A2E7C04640420F0095
:10501000FFFFFF7F8C300020F019002020A1070047
:10502000D02310B51B061C68FCF7EEFCFCF76AFEEB
:105030000023A0420AD1084B08481B780368002BC4
:1050400006D001210648FFF7BBFD0123180010BD63
:10505000FCF7ACFAF5E7C046104404108C30002091
:105060005012002010B5024800F00CF810BDC046E8
:10507000402F002010B508220149FDF7C3FF10BDE5
:10508000402F002010B588B004000D220021684692
:10509000FDF7B2FF0D22002104A8FDF7ADFF4B2361
:1050A0006A466846137004A90D2207F051F91521CC
:1050B000082220006944FDF7A5FF08B010BDC046D6
:1050C000F8B500F0EDF90C23184DFF22AB67052071
:1050D0001749FBF7B9FF174C402200212000FDF7CC
:1050E0008BFF4027002301262121134A6670278366
:1050F000A260136063545F316184453963540F4A81
:105100000F496360E2602787A1620B606362E2621D
:1051100007F036F980239B052E64EB649023094A3F
:10512000EA508022084B5202DA64F8BD00001150A8
:10513000E9060020D02A0020840010500001105001
:105140008000105010D001000020115010B5012136
:105150000520FBF729FF10BD10B5002200210248F1
:1051600000F0BEF910BDC046F02A0020044B1970B3
:10517000002904D080219023024A8902D15070472F
:10518000A1300020002011500B785B0602D14B7833
:10519000052B00D070478A78014B1A60FAE7C046A9
:1051A00000001150F0B5C64600B5CC7888780A7971
:1051B0004B797F21A40701401B02C50913434F000F
:1051C000A20F1400324E7A195201B21890700120C9
:1051D0006840507000205B055B0DD0701383D4765F
:1051E0008046CA00012D33D02A4884468801624493
:1051F0008446B4446046826040461060002933D043
:10520000254AC90090466246414451603F223F33DF
:105210009343022C00D15B0020487A1901685201A7
:10522000B218D1601E4ACB18036051405A40802307
:1052300088465B019A4228D84346A4061C43802333
:105240007F197F01F61972681B062343136011E072
:1052500014488446880162448446B44460468262AD
:1052600040461060002909D100236D0175196B605B
:105270000D4BEB60012080BCB846F0BD084AC90068
:105280009046624641445162C0E7FDF73DF9D3E7DD
:10529000D02A00208400105004001050002F00205D
:1052A00000001050800010500001105010B507F0A1
:1052B00067F810BD10B57F200C0020404000E409C5
:1052C000110000191A00034B4001C01800F008F942
:1052D000012010BDD02A00207F23180000B508400F
:1052E00083B00B4204D14B424B41084A01339366D1
:1052F0008022C9094000064B401840010021C01817
:10530000120107F095F803B000BDC046002011500F
:10531000D02A00207F22130010B50B400A4200D192
:1053200010BDC9095B005B1804485B01C01800236D
:1053300000220349C37007F07BF8F1E7D02A002070
:10534000FFF7FFFF7F20002308404000C90910B588
:105350004018504C400120184268002113608268B8
:1053600013602022FDF748FEE36C002B00D090E094
:10537000E36E002B00D08CE08C33E358002B00D080
:1053800087E0AC33E358002B00D082E0CC33E35805
:10539000002B7ED1EC33E358002B7AD10D33FF3351
:1053A000E358002B75D12D33FF33E358002B70D118
:1053B0004D33FF33E358002B6BD16D33FF33E3588C
:1053C000002B66D18D33FF33E358002B61D1AD3311
:1053D000FF33E358002B5CD1CD33FF33E358002B70
:1053E00057D1ED33FF33E358002B52D183239B0079
:1053F000E358002B4DD18B239B00E358002B48D161
:1054000093239B00E358002B43D19B239B00E3583D
:10541000002B3ED1A3239B00E358002B39D1AB23B3
:105420009B00E358002B34D1B3239B00E358002B9F
:105430002FD1BB239B00E358002B2AD1C3239B0011
:10544000E358002B25D1CB239B00E358002B20D120
:10545000D3239B00E358002B1BD1DB239B00E35895
:10546000002B16D1E3239B00E358002B11D1EB2333
:105470009B00E358002B0CD1F3239B00E358002B37
:1054800007D1FB239B00E358002B02D1024B034AB8
:105490001A6010BDD02A0020002F0020800110507B
:1054A00080220A4B520410B51A60094B09491A6050
:1054B00010000B689843FBD180220021520106485E
:1054C000FDF79AFD0922054B5A6710BD00E0004028
:1054D00000F0004008C000400000105000001150D3
:1054E000002310B5C38201338282837601610400F8
:1054F00006F04EFF002804D080219023074A89023D
:10550000D150200006F08CFF002802D00123237721
:1055100010BD200006F074FFFAE7C04600201150CD
:10552000002070477047C0467047C0460020704753
:1055300000207047002070477047C0467047C04643
:105540007047C0467047C046014B98787047C046C8
:10555000981E0020024B5878431E9841C0B27047F5
:10556000981E0020024B18784007C00F7047C046B5
:10557000981E0020F8B54746CE4680B52A4F060053
:105580003B78FF2B04D00120C0BCB946B046F8BD23
:10559000002154222548FDF72FFD0022244C254BE5
:1055A00020001A70FCF702F8234B1C60234C2000EB
:1055B000143CFCF717F8200002F0A6F8204B214D10
:1055C0001C60214B002B04D0280000E000BF1F4BC3
:1055D00018601F49002489461C49002388462A7800
:1055E00010E043461B6862019B18002B12D05B68D9
:1055F000002B0FD098472A780134E4B2511C2300C5
:10560000A14209DBA242ECD89B1A5B014B445B68C8
:10561000002BEFD10020B7E730003E70FFF750FDC0
:105620003000FFF793FDAEE784120020981E0020A3
:10563000501E0020A2300020EC1E00207C12002012
:10564000F01E0020A030002000000000681C002098
:1056500010CE0010F0B5DE4657464E464546E0B542
:10566000C84B91B002931B78FF2B00D13EE1C64B93
:10567000C64E9B465F46C64B0DAC0193C54B00938F
:1056800035686A69EFF3108172B61368002BFCD09D
:10569000BFF35F8FA9612800210001F065FE6A69F0
:1056A000AB69BFF35F8F0021116083F3108800287E
:1056B00000D11BE16378082BE2D89B00FB589F4682
:1056C0006368002BDCD0A0689847D9E77F22217956
:1056D000AF4D0A405300EB189846C8098044404635
:1056E0000123303005799D430571057903339D43CE
:1056F0000571002A00D100E14346A74A1B7D1278BC
:10570000934200D3EFE0A54A5B011568ED18002D28
:1057100000D1EBE0A36862792078AD69A847AFE7D4
:105720009F4A1378002B00D1E0E01378013BDBB2F5
:1057300013701378002BA3D10122954D01212B78F2
:10574000042013432B703423EA5C8A43EA54EA5C56
:105750008243EA540133EA5C8A43EA54EA5C8243B6
:10576000EA54237800209B4600F0DAFC602223797B
:105770001A40602A00D1EFE0402A00D1F5E0DB06B4
:10578000DB0E012B00D113E1022B00D1C7E0002B6F
:1057900000D0E1E0202A00D11CE2002A00D0DBE0AA
:1057A0006379092B00D9D7E07E4A9B00D3589F46E6
:1057B000774D2B78DB0700D462E7FFF7C3FE5FE786
:1057C000019BDB78DB0700D45AE76068FFF7ACFE8B
:1057D00056E76F4D2B78DB0700D451E72878000798
:1057E000C00FFFF7ADFE4BE723786A4999468B4619
:1057F000694B6A4998468A4639001A784746002319
:10580000B04600254E46894610E053461B686A01A3
:105810009B18002B00D176E0DB68300098473A787F
:105820000135EDB2511C2B008D4244DC9542ECD386
:105830009B1A5B015B44EFE7237858499946564B26
:105840008A4698463100BB464E461A78002500230A
:10585000474689460FE053461B686A019B18002B98
:1058600055D0DB68300098473A780135EDB2511CCD
:105870002B008D4207DC9542EDD39B1A009A5B0109
:1058800094466344EDE7019D542200212800FDF772
:10589000B3FB1022FF214448FDF7AEFB2800202275
:1058A000FF2114304E465F46FDF7A6FB00F02EFCAC
:1058B000FFF744FEE4E6364D542200212800FDF7B0
:1058C0009BFB1022FF21281DFDF796FB28002022BC
:1058D000FF21143046464F46FDF78EFB00F016FCC4
:1058E0002379AB70CCE6501C984213DA11B0F0BCAF
:1058F000BB46B246A946A046F0BDA36862792078AF
:1059000000F022FCBCE646464F46214DE6E74E46F7
:105910005F46CBE71F4D9B1A5B015D19FAE67023CA
:10592000217A0B4218D1C80982460F330B405B0025
:1059300098461948EB1853441B7D007899468342DA
:1059400066D216485B01006881469944002A00D15E
:105950005FE14B46002B68D120780021FFF7BCFCAB
:1059600080212078FFF7B8FC8AE6104800F0D8FBC9
:10597000012158460EAAFFF7D3FD002800D07FE68C
:10598000EAE7C0468412002068CD0010F01E002017
:10599000981E002010CE0010A0300020681C0020AF
:1059A000A23000208CCD00109C1E0020215500103C
:1059B000237A0F2BD0D8CF4AEB181B791578AB423E
:1059C0003ED3691C9942C7DB5D1BCB4B6D01ED18C3
:1059D000686900F0A5FB012158466B690EAA98473B
:1059E000002800D04CE66022150023791D401A42A1
:1059F000B2D163790A3B012BAED800F091FB6379F9
:105A00000A2B00D199E158460EA900F015FB37E6A4
:105A1000431C4B4500DAF7E04B461B1A5B019946E5
:105A2000B5488144002A00D1F3E04B46586900F0A4
:105A300077FB4B46012158465B690EAA98479CE7C5
:105A4000AE4A5B011568ED18002DC1D184E7A3793A
:105A500099466B789945D6D06B78002B00D033E10E
:105A60004B466B70002B00D12BE148460138C0B289
:105A7000FAF730FE002800D17EE143780793022B2D
:105A800000D079E10122C179B1468B11491113404F
:105A90000A40302112015B0113432A78A8468A4349
:105AA00013432B7009239A4682445646BA46C3785C
:105AB00082781B021343C31805938E4B04938E4BBD
:105AC00008938E4B09938E4B0A93059BB34200D8E3
:105AD00055E1737801220B2B03D13378F278F61855
