:020000041000EA
:1000000000B5324B212058609868022188439860DF
:10001000D860186158612E4B002199600221596106
:100020000121F02299502B49196001219960352056
:1000300000F044F80222904214D00621196600F024
:1000400034F8196E01211966002018661A6600F04E
:100050002CF8196E196E196E052000F02FF8012189
:100060000842F9D1002199601B49196000215960AB
:100070001A491B48016001219960EB211966A021F2
:10008000196600F012F800219960164914480160C1
:100090000121996001BC002800D000471248134993
:1000A000086003C880F30888084703B5996A0420EC
:1000B0000142FBD001200142F8D103BD02B5186610
:1000C0001866FFF7F2FF186E186E02BD00000240BE
:1000D000000000180000070000035F00212200005C
:1000E000F4000018222000A00001001008ED00E03C
:1000F00000000000000000000000000074B24E7A12
:1001000000200420F7010010C3010010C5010010F9
:10011000C1010010C1010010C1010010C101001097
:10012000C1010010C1010010C1010010C701001081
:10013000C1010010C1010010C9010010CB01001065
:10014000CD010010CD010010CD010010CD01001037
:10015000CD010010CD010010CD010010CD01001027
:10016000CD010010CD010010CD010010CD01001017
:10017000CD010010CD010010CD010010CD01001007
:10018000CD010010CD010010CD010010CD010010F7
:10019000CD010010CD010010CD010010CD010010E7
:1001A000CD010010CD010010CD010010CD010010D7
:1001B000CD010010CD010010CD010010CD010010C7
:1001C00000BE00BE00BE00BE00BE00BEEFF3058054
:1001D000103800BEF2EB88713470001058700010B7
:1001E0003802001090A31AE71E481F49086006C88D
:1001F00081F3088810471D480068002801D019487D
:10020000F3E70DA40ECC002902D000F012F8F9E7B4
:100210001749184A002000E001C19142FCD116495B
:100220008847164988471649884700BEFDE701C937
:1002300001C29A42FBD3704758700010C0000020E2
:1002400090170020288700100000042000000420E0
:100250002887001000100420001004200000000077
:10026000704700000000000008ED00E0000000D032
:100270009017002008300020B52A0010ED02001071
:10028000AD2A0010F8B5C04606480749091A8B1078
:10029000C90FC91810B5491003D0044B002B00D06A
:1002A000984710BD90170020901700200000000014
:1002B000054B10B5002B03D00449054800E000BFF2
:1002C000FFF7E2FF10BDC04600000000642E0020D2
:1002D000146C001010B502F0F9FC1E2000F0CAF8F2
:1002E00005F00AFA00F00EF910BDC04610B5FFF790
:1002F000F1FF0022024B1A7000F08AF9FCE7C046B9
:10030000FF2F0020102270B50E490F4C0F4E8B6945
:100310001A4216D110008B6918401A42FAD10D68A2
:100320002378EDB2DBB2F55423780133DBB22370CE
:100330002378092BEBD9064B207018708B691A4271
:10034000E8D070BD0080034001300020942E0020D2
:100350000230002070B5454B02255D5F7E2D45D0F3
:100360002026434CA3691E42FCD17E232360FF2D2F
:1003700000D173E020263E4CA3691E42FCD1FF232E
:100380002360062D62D02026394CA3691E42FCD181
:1003900006232360854251D02026354CA3691E4296
:1003A000FCD12060002D41D02020314C0600A369F3
:1003B0001E401842FAD12660A9422FD020242C4892
:1003C00083691C42FCD10160AA421FD02020284929
:1003D0008B691842FCD10A60EF2D0FD02021244AEE
:1003E00093691942FCD1EF23136070BD2026204C85
:1003F000A3691E42FCD10D232360B1E720211C4AD2
:1004000093691942FCD10D231360E7E720201849B6
:100410008B691842FCD10D230B60D7E720241448C8
:1004200083691C42FCD10D230360C7E720241048D8
:1004300083691C42FCD10D230360B5E720260C4CD8
:10044000A3691E42FCD10D232360A5E72026084C9A
:10045000A3691E42FCD10D23236094E72026044C9F
:10046000A3691E42FCD10D23236083E7F02F0020F7
:1004700000800340962170B504008901134801F003
:10048000F9FB0221042000F0FFFA0221052000F010
:10049000FBFA002006F040F906F034F9251C1E2C6A
:1004A00000D91E25EAB200210620FFF753FF084BB2
:1004B000152008491D7000F095FC5022034B9A63EB
:1004C0005A6B38231340044A136070BD0080034008
:1004D00004300020050300103490034010B51021B3
:1004E000024800F0ABFA024B186010BDBC2E002091
:1004F000DC2E002010B52021014800F081F810BD4D
:10050000BC2E002010B50A4800F08CF9002800DA53
:10051000FEE7084800F08CFA00F052FA002800DAF2
:10052000FEE700F04DF8044800F064F810BDC04646
:10053000186C0010DD040010F5040010004870472E
:10054000746E001000487047E46D001070B500280C
:1005500023D004282CD8174B8000C558280006F05B
:1005600035F9C0B2041C1F2812D8E4B2002808D004
:100570000023114AE95C01331180D9B202328C4266
:10058000F8D8C0220134E3B25B00920013430CE0C0
:100590001F24E4B20028EBD1F3E7064B02221968CE
:1005A000054802F029FAC1239B000448038070BD6E
:1005B0000020FCE738110020821D0020801D002053
:1005C00010B504F06DFDFA210122074B8901196075
:1005D000064B1A70064B1A80002259809A80D980E7
:1005E0001A815A819A8110BDA82E0020FE2F00206A
:1005F000AC2E0020014B18607047C046F42F00203D
:1006000010B50A000100002003F070FE10BDC046C6
:10061000012010B50021404202F0C4FF10BDC046C9
:10062000002070470020704730B54B780020012B28
:1006300002D14B79022B00D030BDCB788C78012BC6
:1006400010D0022BF8D1CB798D791B022B43022BD2
:10065000F2D1537810780A491B0203436400012049
:100660000B53E9E7CB798D791B022B43012BE3D1A7
:100670001278044B52B2511E8A4101201A55DBE711
:100680005C2E0020582E002000207047002070476C
:1006900030B5CB788A784D791B021A43040083B0B9
:1006A0001B0A012D19D0022D04D00020042D25D0C5
:1006B00003B030BDD2B2012B1AD0022B28D14B7817
:1006C000012B27D0022B23D11E4B6A4600931E4BD1
:1006D0000193082304F062F9EAE70020022BE7D136
:1006E0006A46009504339080200004F057F9DFE754
:1006F000164BD218012303F05DFCD9E7012B10D073
:10070000022BD5D101232000114A03F053FCCFE77F
:100710000020CDE70F4B5200D218022303F04AFC11
:10072000C6E74B78012B07D0022BC1D10E23200046
:10073000094A03F03FFCBBE704232000074A03F00B
:1007400039FCB5E70100A6FF5A000100582E002031
:10075000FE2F00205C2E0020AC2E0020A82E0020B2
:10076000034B10B51B68002B00D09847012010BD2B
:10077000F42F00200120704701207047184B10B55E
:10078000DA6A19690B2A24D00C2A1BD00120DA69F5
:1007900089011A62DA690132D40F12190240121B60
:1007A000A024E405A446DA61DA69586A04329200AA
:1007B0009A1852681B6B61444A60C861002B00D0D4
:1007C000984710BDA0240B3A8A400648E405225001
:1007D000DCE7A0240A3A8A400348E4052250D5E722
:1007E000301F00201C0400000C04000010B50C4C4D
:1007F0006069002803D002F0EDF800236361A0696E
:10080000002803D002F0E6F80023A3612069002845
:1008100004DB05F089F801235B42236110BDC0466B
:10082000301F0020F8B50500574C3422002120006D
:1008300002F0DCF810222900200002F0DDF82B681D
:100840001A3B032B00D994E0EB68686863624F4958
:100850005E0002F066F802F071F84D4A4D4B01F06F
:1008600052FF01F08FFF2085300002F0A1F8606197
:10087000002800D184E0300002F09AF8A06100283E
:1008800000D17DE0012005F059F8206100285ADBF5
:10089000082001F06DFB01F059FF0600A8680F0069
:1008A00001F054FF02000B003000390001F02BFF73
:1008B0000022394B01F01DFF01F088FF2369374A00
:1008C000D9021140364A061C0A430B216069E162D5
:1008D000616AA024E405A4469B01324C63441C6079
:1008E0002C685860996020001A611F2100F0CCF834
:1008F00000222000002100F0E1F82000002100F09B
:100900004FF9294C05F0D8FB2B6822681A3B1B03D2
:100910005340E022EC21D2011340244A89051360A0
:10092000234B301C1A68234B5340234A1340234A5D
:10093000136001F0DFFF8721C90501F0F2FF01F02C
:10094000F7FF206117E06069002815D002F042F837
:100950000023A0696361002803D002F03BF8002364
:10096000A3612069002804DB04F0DEFF01235B4261
:10097000236101204042F8BDA0690028EDD1F8E7CD
:10098000FFF734FFF5E7C046301F002000F07F4539
:100990006666666666660A400000F03FFD7F00FFFF
:1009A000250012000CC0044000C0044000D00440E8
:1009B00008C00440090000010F00000F08D00440E7
:1009C00010B5164C0121E06A00F0F2F91449E06A12
:1009D00000F008FAE36A0B2B19D00C2B14D101227A
:1009E000236910499A400A60A0210022C9058C465B
:1009F000E261616922629B01626A63445960DA6163
:100A00000822094B1A6001E00120404210BD01227A
:100A1000236906499A400A60E6E7C046301F002075
:100A20007D0700101424005000E00440042400500E
:100A3000014B18637047C046301F0020114B70B542
:100A40000400D868884200D90800D9691A6A91421E
:100A500015D01A6A043292009A1855682822995EB5
:100A60001A6A01321A62002808D0002389B24600AF
:100A7000EA5A521AE25202339E42F9D170BD002066
:100A8000FCE7C046301F0020094A83009A1810B5C1
:100A900014684022544080322240064CC000A446D4
:100AA00063441A60044B9C466044416010BDC046DC
:100AB00004C0014004D0014000400140074B8000C9
:100AC000C3181B68C90092000A435A400C23134004
:100AD000034A9446604403607047C04604C0014026
:100AE00004D00140D0231B061B6830B505005842D6
:100AF00043412F205B4283430E48EC088446072085
:100B000028408000814020000B4D3C306344800031
:100B1000A40041511B19002A05D08022920194465D
:100B20006344196030BDC022920194466344196049
:100B3000F8E7C0463041014000400140D023F0B505
:100B4000C6461B0698461B680C4F9B001600FA58B9
:100B500004000D0000B5104209D1290014430D20F6
:100B60003200FC5000F068F980BCB846F0BD01F0DE
:100B7000A7FA43461B689B00FA58EEE78C2E00202C
:100B800010B504000D2000F051FAD0231B061B689D
:100B900002499B005A58A2435A5010BD8C2E002087
:100BA0008000002905D0064B9C464023604403602A
:100BB0007047044B9C46402360440360F8E7C046FE
:100BC00004E0014004F001408023DB051868000FB9
:100BD0007047C0460FB400B5084883B002F0C4F8AF
:100BE000049B002B07D005A91800019101F012FF0A
:100BF000034802F0B9F8012001F024FF4C6C00100A
:100C00005C6C0010EFF3108072B6034A1368002B7F
:100C1000FCD0BFF35F8F70472C0100D0BFF35F8F14
:100C20000022024B1A6080F3108870472C0100D01C
:100C300070B5EFF3108C72B60D4D2B68002BFCD005
:100C4000BFF35F8F0724CB08C618C05C01230C409C
:100C5000A3401C000440034207D118433070BFF387
:100C60005F8F2C608CF3108870BD1000FFF7B2FF0F
:100C70002C0100D0F8B54746CE46884680B5EFF344
:100C8000108C72B61C4D2C68002CFCD0BFF35F8F0B
:100C90009A4222D807210126894602E00132934276
:100CA00018D34D4637001540AF40D4080119045DF4
:100CB0002742F3D110003C430C70BFF35F8F00223A
:100CC0000D4B1A608CF3108800280EDBC0BCB946AF
:100CD000B046F8BD01204042EFE7BFF35F8F00232D
:100CE0002B608CF31088012040424346002BEDD04E
:100CF0000898FFF76FFFC0462C0100D030B5EFF326
:100D0000108C72B60A4C2368002BFCD0BFF35F8FA7
:100D1000072301220B409A40CD08435D934343557E
:100D2000BFF35F8F002323608CF3108830BDC04673
:100D30002C0100D0044A1078431CDBB2172B00D9D9
:100D4000102313707047C0464C11002010B5064B9D
:100D5000064C82B00100009318221F232000FFF7E9
:100D600089FF02B010BDC046606C0010A4200020B6
:100D70000021044B044ABFF35F8F02C39342FAD1B0
:100D80007047C046000100D0800100D0054B064AE4
:100D90001360064A136053609360D360136153611C
:100DA000936170478080808000E400E004E400E00C
:100DB0001F2318401E3B8340002905D0C021044A50
:100DC0004900535013607047802201498B50FAE765
:100DD00000E100E001238340014A13607047C046F0
:100DE00000E200E070B50D00EFF3108672B60F4A16
:100DF0001368002BFCD0BFF35F8F0D4B10309B6846
:100E000084001B590B4A934203D09D4201D001F04C
:100E100057F9074B9B681D51BFF35F8FBFF35F8F7F
:100E20000022024B1A6086F3108870BD240100D0A6
:100E300000ED00E0CD010010F0B557464E46DE460D
:100E40004546E0B585B0060000911700EFF3108B22
:100E500072B66A4A1368002BFCD0BFF35F8F00257F
:100E6000674B5D579A46002D00DAA9E06B00654C90
:100E700001935B199B009846A146C1444B465246DC
:100E80009B7910361370604BB6009B6899590B1B09
:100E90002F2B33D95D4B994200D0ACE0019B4246E9
:100EA0009C465B4B6544AD0063535A4B0232A2181B
:100EB000043B9B1A1B05584A5B0D651913436B8055
:100EC000564B0121AB80FF23AB71009BEF71AB60F0
:100ED0004B460B4319004C4B9B689951BFF35F8FF6
:100EE000BFF35F8F0022454B1A608BF3108805B06B
:100EF000F0BCBB46B246A946A046F0BD01200A00A0
:100F00008243D3798C46BB4231D8454613004449CD
:100F10001B1B5B415943090D3D4B63533D4B023550
:100F20006519043B5B1B1B053B4D5B0D2B43AA4620
:100F30004D466B800425AC465546E044131F44449F
:100F40001B1B1B055B0D1D434B46997100999D8032
:100F500099604946DF71334B01431360BBE758008A
:100F6000C01880002018C179B9422FD90200062389
:100F7000D356002BF3DA02932B4B61460393131DD8
:100F80009A4604235B429C46E14450464B461B1A5A
:100F90001B055B0D9C46204B957198466346404669
:100FA00003439380019B5A199200039BA418A380CA
:100FB000029B1C4AA371009B2260E771A3608AE731
:100FC00001F07EF8002553465D574FE79088029365
:100FD0004005131D9A46031561469C464046D4447D
:100FE000634604302018181AE0230005400D1B0248
:100FF00018430390C5E701F063F84FE7240100D0E0
:10100000003000205011002000ED00E0CD01001064
:1010100000A1FFFF8011002000E0FFFF01BDFFFFE6
:10102000AAAA00000148804701BD0000F0B5DE46D5
:1010300057464E464546E0B50C0083B0EFF31088A6
:1010400072B6634A1368002BFCD0BFF35F8F614B0D
:1010500061499A68030010339F00D55901938D426E
:1010600043D0A54254D05D4EAA1B2F2A3DD85C4BDD
:101070009B461B68994601231A009C4682404B46BA
:1010800013401F2299466346024093409A468022AD
:101090005B4650469850BFF35F8FEFF305839B4646
:1010A000002B37D0019B5B4501D001F009F80123EB
:1010B0002A009A439068844208D176E04B005B187E
:1010C0009B00F3189868844236D01A0006215156C6
:1010D0000029F3DA844254D04B46002B27D0C0229B
:1010E00051463F4B5200995019603A4B9B68DD5175
:1010F000BFF35F8FBFF35F8F0022354B1A6088F319
:10110000108803B0F0BCBB46B246A946A046F0BD6D
:101110000D00EAE72A0063469A4390688442D5D1DD
:1011200006201056130000280ADA0D0031E0802353
:1011300051462B4AD150D8E706201856002821DB0B
:1011400042001118890074188B46A1689960E179F2
:10115000D971062161569971002924DBA488F11AFE
:10116000640524155C44091909051E4C490D2143E9
:10117000998013181C4A9B001178F318997110700C
:10118000AAE713005946002914D1FF31917117497C
:10119000918015490A789A71154A9B1B5B415A4305
:1011A000120D0A7098E71149E2E706201056130065
:1011B0000028C5DA0F4A1049D21A083A5002400DE9
:1011C000014399800D4952080A43DA8084E7C046FA
:1011D000240100D000ED00E0CD01001050110020EE
:1011E00000E100E000E0FFFF0030002001BDFFFF54
:1011F000AAAA00008A11002000F0FFFF00F8FFFFFC
:1012000010B58308040003202040FF24054AC000D5
:101210009446844081409B0063441A68A2430A4379
:101220001A6010BD00E400E070B501240443EFF340
:101230000581EFF3108C72B6214A1368002BFCD0A5
:10124000BFF35F8F1F4B05001F4AED1A6D416A43C4
:10125000120D1E4D8900AE6852B27658A6421CD0BF
:101260000621595691421CD012215956914222D042
:101270001E215956914220D02A21595603249142C9
:1012800010D0134B19781A708171BFF35F8F002251
:101290000B4B1A608CF3108870BDAB680D4C5C5022
:1012A000EFE700246100091989005B18FF2199719B
:1012B00009499980E5E70124F4E70224F2E7C046F2
:1012C000240100D050110020AAAA000000ED00E087
:1012D00000300020CD01001001BDFFFF1F2110B51F
:1012E000091A0248FFF70AFD10BDC046033000206E
:1012F00010B5084B084C82B0010000930022052372
:101300002000FFF7B7FC002801DB1F23181A02B0EA
:1013100010BDC0467C6C00100330002070B5040086
:101320000E001500FFF706FD0100200000F006F892
:10133000A680E580BFF35F8F70BDC046024B9C4620
:1013400061448900016070474000003470B5114C61
:10135000114DAC420FD2FF262368002B0CD0FFF7B3
:10136000E9FC01002000FFF7E9FFA680BFF35F8FD3
:101370000834AC42F0D370BDFFF7DCFC0100200064
:10138000FFF7DCFF2671BFF35F8F0834AC42E3D375
:10139000F1E7C046881700209017002010B5040020
:1013A000FFF7C8FC01002000FFF7C8FFFF232371EF
:1013B000BFF35F8F10BDC04610B50400FFF7BAFC45
:1013C00001002000FFF7BAFFFF23A380BFF35F8F68
:1013D00010BDC04610B504000120FFF7B7FC034B59
:1013E000C3189B002360BFF35F8F10BD4000003423
:1013F0000A4B1968EFF3108072B60A68002AFCD015
:10140000BFF35F8F1B68BFF35F8F00221A6080F30A
:10141000108840BF002000217047C046E42F002004
:10142000F0B5DE4657464E464546E0B587B0EFF389
:1014300005820323012513409D409900B34AB44B14
:1014400054581D60B34B8846A946049329E0A388ED
:101450001BB2002B00DBA5E0A379002B00D0E6E057
:101460000823E05E002800DA0FE1430062691B18E0
:10147000DB00D3189E68DD68731C00D111E1A64B18
:10148000190041449A6A0B69B01A9B1A984200D21B
:101490000E61A14800F098FB8D4200DDF5E000D11F
:1014A0002BE14B469C4843630823E55E002DCEDBD1
:1014B00062696B0092465B19DB009A4453469E6852
:1014C000DF6800F081FB8F42C1DC00D10BE1002F0F
:1014D00000DAF0E05246534652691B699346049A7B
:1014E000934200D1E1E052460821605E5288000438
:1014F000594610439847029003910299039A0B00B2
:101500001000134300D1D6E013000A00B61A9F4121
:10151000002806DB804800F057FB029E039F361828
:101520004F4153469E60DF6000229A5E002A8EDBA8
:10153000530099186069C900411801938B68C96804
:101540009B46B94200DD82E702D1B34200D97EE773
:1015500008239C46A444059565462281A446019B28
:101560002C0006E053009918C90041188D68C9681D
:10157000AB469B18DB00C318B94206DC00D1C0E0C3
:101580001C000023E25E002AECDA230064469C463D
:1015900053461A806346059D1D80A3881BB2002B0D
:1015A00000DA59E72269EFF3108172B61368002B55
:1015B000FCD0BFF35F8F0123A7885B42A3803FB2BB
:1015C0002369BFF35F8F00221A6081F31088002F18
:1015D00000DA41E72300083322009A4666697B005F
:1015E000DB19DB00F318996850468C460824115F1C
:1015F000DD68002910DB019306E0AB424DD00023EB
:10160000E15E2000002906DB4C006418E400341978
:10161000E368AB42F1DD019B078000201F5E19806B
:10162000002FDCDA1400A379002B00D118E7002387
:10163000A37126000823E15E08364B1C25D0080064
:10164000A246656902E03E004B1C1AD04B005B18B5
:10165000DB00EF180A008C46E95E7B881BB2002B8A
:10166000F1DA01235B42DC17BB60FC60824205D0EB
:10167000534631801B893B8053461A8160464B1C80
:10168000E4D15446002800DBEFE640BF07B0F0BCD1
:10169000BB46B246A946A046F0BDA3686345AED995
:1016A000B9E76B1C00D0EAE6F3E65B4658461B69D7
:1016B000984700281BD153461B8822692381EFF3EA
:1016C000108372B611680029FCD0BFF35F8F5146BA
:1016D00062880A8022696580BFF35F8F00211160F4
:1016E00083F31088B3E6864200D8F0E6AFE65B46A7
:1016F0001A685B6802920393FFE6864200D8D0E640
:10170000C3E7B34500D83BE73FE7C0467C2E002047
:101710003C700540211400100040054070B52E4C6F
:101720002569002D04D00A212C48FFF707FE70BD63
:101730002B4E0321300000F03DFAE660FFF7FAFA85
:10174000284B03229C46D02322701B061B680121D4
:101750006370254B6044A3600F238000206102204A
:10176000638063694942A18019800231198647313B
:101770001D83585218315A5275325C3999521832B9
:10178000013199521832013199521832013199526E
:10179000083518329D5202311832995218320131EF
:1017A0009952183201319952183201319952183236
:1017B000013199521832013199520C4B0C49DC60BD
:1017C00001303562FFF70EFB01210320FFF7F0FA2D
:1017D000084B1D60A7E7C04698110020E42F0020A9
:1017E0000040054040000034FFFF10007C2E002028
:1017F00021140010386005400048704798110020FF
:10180000F8B51F0008AB1B7804001600002B08D1A8
:1018100000F0E2F932003B00121A8B41002B00DA93
:1018200052E02269EFF3108072B61368002BFCD0EF
:10183000BFF35F8F0223E15E63694A005218D20052
:101840009B182269002936DB1D886580BFF35F8FF6
:101850000025156080F31088069A9E60DF601A618B
:10186000079A5A615A8801325204520C101C002AFD
:101870001FD082B25880080410432669EFF3108706
:1018800072B63268002AFCD0BFF35F8FA2881A803C
:10189000A1802369BFF35F8F00221A6087F310884D
:1018A0000A4923788C4601329A40E36863441A60FF
:1018B000F8BD0120DDE7BFF35F8F0023136080F3E5
:1018C000108801204042F3E70020F1E73C200000AF
:1018D00070B501000469EFF3108C72B6206800281F
:1018E000FCD0BFF35F8F02200D5E4C696800401989
:1018F000C00024180869002D36DB26884E80BFF30F
:101900005F8F002606608CF31088E360638804987C
:10191000013320615B0405985B0CA26060611A1CB6
:10192000002B1FD093B22804628018430A69EFF39A
:10193000108C72B61368002BFCD0BFF35F8F8B88BE
:1019400023808D800B69BFF35F8F00221A608CF3B8
:1019500010880B7801329A40CB6808498C46634462
:101960001A6070BD0122DDE7BFF35F8F00230360C3
:101970008CF3108801204042F3E7C0463C20000071
:1019800010B543890A1493421ADD53009B1842692B
:10199000DB00D3180469EFF3108C72B62268002ABA
:1019A000FCD0BFF35F8F5A88090494B2090C8A42B5
:1019B00008D00369BFF35F8F00221A608CF3108890
:1019C000002010BD8022120214435C8001230269B2
:1019D0008371BFF35F8F002111608CF3108804497D
:1019E00002788C469340C268012062441360E8E7A5
:1019F0003C20000040787047F0B506000F00062438
:101A00006442E517C646A4197D4100B582B08D42F7
:101A100014D811D000F0E0F822002B00121A8B41EC
:101A2000002B15DC002B44D03000390000F012F9F7
:101A300002B080BCB846F0BD8442EBD9002400253A
:101A400000F0CAF822002B00121A8B41002BE9DDAE
:101A500000F0C2F822002B00121A8B41002B0ADB87
:101A600000230193144B2200009314482B00FFF72E
:101A70002FFF0130D8D0A04629000024104A114879
:101A8000536A994204D8956A4545CDD29942CBD143
:101A90000568EFF3108C72B62B68002BFCD0BFF3F7
:101AA0005F8F0368BFF35F8F1C608CF3108820BFCB
:101AB000E6E7002AB8D0CBE7F11300109811002018
:101AC00000400540E42F0020F0B5CE46474680B5E3
:101AD00004000D0083B0EFF3058399460F00002B3F
:101AE00042D1314EA0463378F06804339B00816ABE
:101AF0001B58601A5B1A984212D320BF2B49002052
:101B00004B6AAB4207D38A6A5B1B591E8B41414625
:101B10008A424041184303B0C0BCB946B046F0BD4C
:101B200000F05AF822002B00121A8B41002B28DB00
:101B30004B4601931E4B2200009330002B00FFF711
:101B4000C7FE011E1DDD194B5A6AAA422AD39B6AA1
:101B50009C4225D83000FFF713FF144A0020536A37
:101B6000BB42D8D3926ACFE7104900204B6AAB4200
:101B7000D1D38A6A5B1B591E8B41A2424041184354
:101B8000C9E70A4A0020536ABB42C4D30020414639
:101B9000926A5B1B8A4240415A1E93411843BAE73E
:101BA000AA42D7D120BFD5E79811002000400540B8
:101BB000F113001010B5024A0248FFF739F810BDC2
:101BC000986C0010A82000200300416A0A00986A5F
:101BD000596A8A42FAD17047034B596A0A00986AD7
:101BE000596A9142FAD170470040054070B504002F
:101BF0000D00174A536A1900966A536A8B42FAD14C
:101C00003000190024184D41AB4216D813D0104BA8
:101C10002A005B6A9D4203D90D494B6A9342FCD36B
:101C2000934207D10A4A02E0516A994202D1916A6D
:101C3000A142F9D370BDA642E9D9054B5B6A1C00ED
:101C40005A1CEFD0012201246442E5175242E3E717
:101C500000400540064A536A9942FCD807D1044B1C
:101C600002E05A6A914202D19A6A9042F9D87047CA
:101C700000400540F8B5040006200D0000F078F99A
:101C8000002844D0374B3849E3185A1E934180222C
:101C9000120494465B429B0D344A9B0563441360D7
:101CA000334A136018000A689043FBD12D4B314A28
:101CB000E31859424B4180215B00490006209952AC
:101CC00000F056F92900C00000F0D8FA0130C3092D
:101CD0001ED1402701226262A362266BF30722D441
:101CE000E36A254B0620E51800232B60266300F0ED
:101CF0003FF93900800000F0C1FA7023E26A5A40CF
:101D00000E3313402B601D4B23630323A364F8BDE4
:101D10001B4A93421ED900231A4A1B4F6262A362D8
:101D2000266BF307DCD5194B144AE3181A60656A71
:101D3000A36A0620AD01ED1800F01AF9144900F06D
:101D40009DFAAD020100280000F098FA0021FFF78B
:101D50004DFFC5E74006800E9F011A003F180300A3
:101D6000B9E7C0460080FCBF08C0004000E000406A
:101D700000F00040F02F00202C10000001030000B4
:101D8000FEFF0000FFFF0000C0FF3F0030300000FA
:101D90004E0E0000F8B5DE464E4657464546E0B5C5
:101DA0008B4605000A991800160000F067FA0A9B96
:101DB0006C001F02324B64199C46A40064446368A3
:101DC00081469F4200D967602B1FDBB29846012BEA
:101DD00030D9C02380229B01E31812011A60294BDD
:101DE000AD0059599A4600291BD17301E02622689B
:101DF00053401E40802342465B01E3181E60012AC7
:101E000030D9802380229B01E31812011A605346C7
:101E10004A4667605A51F0BCBB46B246A946A04646
:101E2000F8BD586900F02AFA013043001B18033B43
:101E3000FDD2DAE75B46012BCBD1C02303229B0105
:101E4000E3181A60023AA3681A42FCD07301E02634
:101E50002268AD0053401E4080230A4A5B0192462F
:101E6000E3181E605A462168514003220A401A6056
:101E700001225B469A40A3681A42FCD0C1E7C046E3
:101E800000800040B0200020F0B546464F46D646C0
:101E9000C0B51F00344B44009C462418A400644481
:101EA000636888461600FF2B02D880235B006360BE
:101EB000031FDBB29A46012B30D9C02380229B013D
:101EC000E31812011A60294B8500595999460029D7
:101ED0001BD17301E026226853401E4080235246E6
:101EE0005B01E3181E60012A30D9802380229B0108
:101EF000E31812011A6080235B0063604B465F5158
:101F0000E0BCBA46B146A846F0BD586900F0B6F943
:101F1000013043001B18033BFDD2DAE74346012B97
:101F2000CBD1C02303229B01E3181A60023AA368B5
:101F30001A42FCD07301E0262268850053401E40FF
:101F400080230A4A5B019146E3181E6042462168DD
:101F5000514003220A401A60012342469340A2687E
:101F60001342FCD0C1E7C04600800040B0200020F2
:101F7000014B8000C0587047B0200020F8B5040025
:101F800021481E0017000D0000F078F9010038000C
:101F900000F074F9069B36041B031E432368002BD4
:101FA00020DB1A4B1A49E3185A1E934180229201F2
:101FB00094465B421B0B174A1B0363441360164A8B
:101FC00013601F000A689743FBD1144B2560E21889
:101FD0002123A06013602368002BFCDA0823E6604D
:101FE0001360F8BD3F2322681340AB42D9D1A368E8
:101FF0001B051B0D8342D4D1EE22E368D2021340AD
:10200000B342CED1EDE7C046001BB7000040FDBF94
:1020100008C0004000E0004000F000400430000034
:102020008023024A9B000B43D36270470080054027
:10203000002310B50100988A1B8B984710BDC0463D
:10204000162310B50100188802331B88984710BD6D
:10205000F8B54746CE4680B50F1E18D014239946D2
:10206000043304000025012698464B461888434651
:1020700021681B88984701C4431E984101350640DA
:10208000AF42F2D13000C0BCB946B046F8BD01261F
:10209000F8E7C046AA23064A1B0113602F2305490F
:1020A000D360054B19605368002BFCDA7047C046BB
:1020B0000040024000B0FA00006002407047C04695
:1020C00010B50148FEF786FDBC6C001070B5074DD9
:1020D000074EB54209D20024013E761BB60808CD52
:1020E000984723000134B342F9D170BDD06B001082
:1020F0000C6C0010054B064A06491A60064A074B4D
:102100001A6010000B689843FBD1704700E0004054
:10211000BFCDFBFE08C00040FE7F3C0000F0004049
:10212000044BDB6C002B03D18022034BD2021A60DC
:102130007047C046000011504C201150044A054B16
:102140001A60054A1368DB018033FBD17047C04633
:10215000FFFFFF0100F0004008C000404022034B99
:102160009A675A671A67DA667047C04600F00140FE
:1021700010B5FEF7FDFD10BD70B5044D044CA96807
:10218000C022200000F038FCAC6070BD00ED00E023
:1021900000000020002310B5294C82B0A367FFF790
:1021A00079FF0122274B1A60636C012BFCD10322BB
:1021B000254B1A60224A936B012BFCD1013300930B
:1021C0000121224A22480433FFF7D8FE05230121CA
:1021D0000093204A2048FFF7D1FE0022022104206C
:1021E0001E4BFFF751FE0022012105201C4BFFF77B
:1021F0004BFE0022002107201A4BFFF745FE00226C
:1022000000210820174BFFF73FFE8023DB000093DF
:10221000002200210920134BFFF7BCFD0022104BC8
:1022200000210620FFF730FE0420FFF7A1FE0E4933
:1022300000F024F801000020FFF7F2FE02B010BD0C
:10224000008000403CB0004030B00040002F685992
:1022500000800240008C864700C00240001BB7008F
:1022600040597307006CDC0240420F000148042112
:10227000014B1847B011002051200010114A936FF4
:102280009B0813D210665166002905D0FFE7FFE7CF
:10229000FFE7516F106F704704B5002801D0002090
:1022A000C04304F045FC002104BDC046F0B5146EE7
:1022B000556E576F166FFFF7E5FF14665566576743
:1022C0001667F0BD000000D094464A4A926F92080B
:1022D000624601D228E0C046F0B5464E346E756EB7
:1022E000776F366F00F020F89446424A14665566C0
:1022F000576716676246F0BD94463E4A926F920851
:10230000624601D254E0C046F0B53A4E346E756E66
:10231000776F366F00F04CF89446364A146655666F
:10232000576716676246F0BD002B24DB11D00029E9
:102330003EDA00B5C943404200D1013100F038F81F
:10234000C943404200D10131DB43524200D1013345
:1023500000BD002AEBD1002801D1002905D00020C2
:10236000C90FC90701D1C043410800B504F0C8FB3B
:102370000022002300BD00B500290ADBDB435242E6
:1023800000D1013300F014F8C943404200D10131BB
:1023900000BDC943404200D10131DB43524200D16C
:1023A000013300F005F8DB43524200D1013300BD98
:1023B000002923D1002B18D1002A0CD0BC460D4F88
:1023C00038667A6600210023FFE7FFE7FFE77A6FB0
:1023D000386F67467047002801D00748010000B5F4
:1023E00004F08EFB0022002300BD02000B00002041
:1023F00000217047000000D0FFFFFFFF002B00D03E
:10240000BFE0130C28D1002AE7D080B4114F396601
:102410007A66FFE7FFE730B4040C7B6F396F1B046B
:1024200023433B667A66FFE7FFE7FFE7C04684B2D7
:102430007B6F3D6F1B0423433B667A66FFE7FFE734
:10244000C04600232C042D0C7A6F386F00196941A7
:10245000B0BC7047000000D0F0B594460025140EC3
:1024600001D112020835140F01D112010435940F65
:1024700001D192000235D40F01D152000135D40BA5
:102480000134254F7C66254C3C660E0C93B2FFE769
:10249000FFE7FFE73C6F6643360C7703BE467343A6
:1024A000DF0B5B04C01AB941130C7343DB18C91A64
:1024B000CE086643360CB64493B273431F0F1B011C
:1024C000C01AB941130C73431F0B1B05C01AB94145
:1024D000860D8F023E436643360C092D24DB520ADB
:1024E0007243801A7703460A6643360C16235B1B39
:1024F000DE40DF40BF1964466643821B70460435E8
:1025000006330100D940A840C01900D30131A242CE
:1025100006D20023F0BD0000000000D0FFFFFFFF47
:10252000121B0130F3D3F1E709277F1BFE406446FD
:10253000A2B27243801A00D20139220C7243130CEA
:102540001204821A99410B007046043513370100BA
:10255000F940A840801900D30131002B02D1A242DA
:102560000AD2F0BD013000D30131121BFAD2013B77
:10257000F8D1A24200D2F0BD013000D30131121BCC
:10258000F7E7F0B51C0C00D080E00CB400251C0A65
:1025900004D11B02160E3343120208351C0B04D162
:1025A0001B01160F3343120104359C0B04D19B0011
:1025B000960F334392000235DC0B02D192185B4137
:1025C00001351C00971864410134464F7C66464C27
:1025D0003C660E0CFFE7FFE7FFE7C0463C6F664333
:1025E000360C7703BE4697B27743C01B00D2013941
:1025F000C01B00D201399FB27743C91BC91B170CFE
:1026000077437E04FF0B801BB941CE086643360C2E
:102610000C2D33DBB644120B1F053A431B0B97B24C
:102620007743C01B00D201399FB27743C91B170CF7
:1026300077433E043F0C801BB941860D8F023E4319
:10264000664329277F1BFE400C3D7746AF40BF19EC
:1026500030BCA2B2ABB272437343801A9941220CD0
:102660007243130C1204801A994102000B000137C7
:10267000001BA941F9D2781E0021F0BD0C277F1B59
:10268000FE4077467F0BAF40FF19E0E700245D1C5A
:1026900007D0144F7D663966FFE7FFE7FFE7FFE7E6
:1026A0003C6F95B29EB265436643401BB141150C29
:1026B0001E0C6543664336042F0C3E432D04401B1D
:1026C000B141994204D202000B0020000021F0BD6C
:1026D00001D19042F7D3801A994101349942F2D343
:1026E000F6E70000000000D0FFFFFFFF4840414038
:1026F000484018B4134B5B68019308BD18B4114BE4
:102700001B68019308BD94460F4A926F920805D248
:10271000624618B40B4BDB68019308BD0A4AF0B55A
:10272000146E556E576F166F6246FFF7F2FF064A3A
:102730001466556657671667F0BD18B4014B9B6861
:10274000019308BD68190020000000D00021002876
:1027500005D17047C1174840401AFAD0C90713B5D0
:10276000064B1B6898470CBC441CA2401005120B7A
:102770000349091B09051943114310BDE02E002030
:102780001F04000010B54C00620D8023D218DB003E
:10279000D21A5B057E2A10DD9E3A13DACC170903A4
:1027A000490819435242D140640001341532202AAD
:1027B00005DAD0400843604310BD002010BD084634
:1027C000604310BDC80FC018013810BD18B4024BCB
:1027D000DB6F019308BD00006819002010B50148A7
:1027E000FEF7F8F9C86C0010132370B51D78012DA1
:1027F00019D014DD1D48FFF723FC06001C48FFF725
:102800001FFC1C4C80223100200000F0F5F8022D46
:1028100006D01948FFF70CFC184B186070BD154C1A
:10282000174BA364F5E7174B124C23606360A3605A
:10283000E36023616361A361E36123626362A36276
:10284000E36223636363A363E36323646364A36456
:10285000E36423656365A365E36523666366A36636
:10286000E36623676367A367E367D9E75344000020
:1028700053460000681900204C330000E02E002071
:1028800089280010DD27001007B5604601880A0A74
:102890000230DF2AFAD1C9B2820804D30288408804
:1028A0000004104300E00068014A5050039007BD47
:1028B0006819002051434343C9188C46110C83B258
:1028C0004B4310B4040C614392B280B25043624354
:1028D0001C041B0C001910BC59411304120CC01825
:1028E00051416144704700004840414048400E4B10
:1028F0005B6818470C4B1B6818470C4A936F9B0882
:1029000002D2094BDB681847F0B5146E556E576F4D
:10291000166FFFF7F6FF054A146655665767166788
:10292000F0BD014B9B681847E42E0020000000D04A
:10293000014B5B6A18470000E42E0020014BDB6F5F
:1029400018470000E42E002010B50148FEF742F9B8
:10295000486C0010132310B510481C78FFF770FB6B
:102960000100012C0AD003DD80220D4800F044F85C
:102970000C48FFF75DFB0C4B186010BD084C54224F
:10298000200000F039F82200084980322368002B2B
:1029900000D1216004349442F8D1E9E753460000A5
:1029A000E42E00204C330000E02E002049290010C6
:1029B00010B5040003F09CFB002804D0034B04195D
:1029C0009C4200D810BD0248FEF704F90000042024
:1029D000E06C001010B503F095FB10BD0148042118
:1029E000014B1847C011002051200010014B1B68FB
:1029F00018470000C0110020014B5B681847000019
:102A0000C011002010B5002800D110BD00F062F9FF
:102A1000FBE7C04610B5094A0300146884B0002CD7
:102A200008D0012200910648524203A9A047012084
:102A300004B010BD00F098F90020F9E7302E002016
:102A4000052A001000BEFDE7094A030010680028AF
:102A500005D00849C3188B4207D813607047064851
:102A60000449C31810608B42F7D901204042F5E7B2
:102A70002C2A0020000004200830002010B5041E7D
:102A80000DD0FFF7A9F8074B1A685B68801A9941C7
:102A90000023054AFFF718FC20606160A260002057
:102AA00010BDC0465819002040420F0010B5FFF776
:102AB000C9FFC04670B5FFF709FB074D074EB54289
:102AC00009D20024013E761BB60808CD98472300A2
:102AD0000134B342F9D170BD0C6C0010146C0010BD
:102AE000030010B5080011001B68984710BDC046D0
:102AF000F0B5C64600B5437D07000C001600002B5C
:102B000046D0002A17DD0B780A2B24D000239846E4
:102B1000012E13D001252900635C01350A2B26D034
:102B2000B542F8D1464509DCA419013C23780D3B98
:102B30005A4253413B7580BCB846F0BD4346E0184D
:102B4000A419F11A013C3B68984723780D3B5A427F
:102B500053413B75EFE7037D002BD7D102210F488E
:102B60003B689847012EDFD001239846D2E7631EC9
:102B70005B5C0D2BD4D0884504DA4346C91AE018B3
:102B80003B689847022105483B68A8469847C7E735
:102B90000368110020009847CDE7C046F06E001092
:102BA000F0B54546DE464E465746E0B583B0914601
:102BB0001C0080460D00FFF70FF80023304A121862
:102BC0004B41002B02DA01222E4B52422E490800C3
:102BD0008A4603F0D5FF07006B1C03D1404603F083
:102BE000F5FD0500002C27D0284E294B1C68002C31
:102BF00018D04B46002B21D1264B994602E0246980
:102C0000002C0FD02368002BF9D04B461B68002BFB
:102C100001D09C42F3D120002A004146B0472469EC
:102C2000002CEFD1002F26D1280003B0F0BCBB460A
:102C3000B246A946A046F0BD174ED6E7154B9946B9
:102C40000A239B4602E02469002CEBD02368002B6A
:102C5000F9D04B461B68002B01D0A342F3D12A00C8
:102C600041462000B0476B465A462000DA71D91D14
:102C70000122B047E7E7504603F03AFFD4E7C046E9
:102C800040420F00FFFFFF7F88170020F12A00104D
:102C9000142A0020282A0020E12A00100A4A13687A
:102CA000002B05D10CE01A001B691032002B07D055
:102CB0008342F8D1002902D1186910601961704768
:102CC0000029FCD01060FAE7142A002010B500F0AB
:102CD00057F910BDF0B5CE46474680B583B06B4678
:102CE0000600DD1D2870FEF777FF0023194A121831
:102CF0004B41002B02DA0122174B524217490800C0
:102D0000884603F03DFF164B81461C68002C14D00A
:102D1000144F02E02469002C0FD02368002BF9D057
:102D20003B68002B01D09C42F4D1200001222900F5
:102D3000FFF7DEFE2469002CEFD14B46002B05D1B6
:102D4000300003B0C0BCB946B046F0BD404603F009
:102D5000CFFEF5E740420F00FFFFFF7F88170020FE
:102D6000142A0020282A002070B5040003F02EFD4C
:102D700001230100050001222000FFF711FF084B8D
:102D80001C68002C06D06368002B05D09847246986
:102D9000002CF8D1280070BD2469002CF3D1F9E78C
:102DA000142A00207047C04670B5040000200E00B1
:102DB00001F0D0FE002834D0002001F0E5FE00280C
:102DC0002FD0FEF709FF0023174A12184B41002BA2
:102DD00016DB164D280003F0D3FE002821D000207A
:102DE00001F0B8FE00280FD101200021404200F080
:102DF000D9FB03246442280003F07AFE200070BD52
:102E000001220B4B5242E4E7002001F0BDFE0028F6
:102E1000EAD021003200002001F0C4FE041EEAD1F5
:102E2000E7E703246442E9E740420F00E82F00206F
:102E3000FFFFFF7F10B5FEF7CFFE00230D4A1218EB
:102E40004B41002B02DA01220B4B52420B4C20006B
:102E500003F096FE00280CD001200021404200F033
:102E6000A1FB002001F0EEFE0028F5D1200003F0C8
:102E70003FFE10BD40420F00FFFFFF7FE82F002004
:102E8000F8B5DE46574680B505000C00FEF7A4FEF7
:102E90000023364A12184B41002B02DA0122344B30
:102EA0005242344908008A4603F06AFE002803D1E2
:102EB000C0BCBB46B246F8BD002001F04BFE002866
:102EC0004AD00026002C43DD2B4B9B4614E0A91969
:102ED000002001F0F3FE070001200021404200F035
:102EE00061FB002001F0AEFEFEF776FE224BF619E4
:102EF00018605960B4422BDD002001F001FFA71BD0
:102F00000200B84200DD3A00002AE0D10120002191
:102F1000404200F047FB002001F094FE002001F049
:102F200019FE002814D0002001F0EAFE0028E1D1AB
:102F3000FEF752FE5B460F001A685B68002184466C
:102F40000E4812184B419F4202D8D3D19445D1D993
:102F5000504603F0CDFDABE700200021064B186082
:102F60005960504603F0C4FDA2E7C04640420F003E
:102F7000FFFFFF7FE82F00206019002020A107003D
:102F8000D02310B51B061C68FEF736FCFEF732FD99
:102F90000023A0420AD1084B08481B780368002B85
:102FA00006D001210648FFF779FE0123180010BD65
:102FB000FEF7F4F9F5E7C04654700010E82F002042
:102FC000D011002010B5024800F004F810BDC04632
:102FD000A02E002010B588B004000D220021684604
:102FE000FFF704FD0D22002104A8FFF7FFFC4B238F
:102FF0006A466846137004A90D2203F071FD15217D
:10300000082220006944FFF7F7FC08B010BDC04655
:10301000F8B500F0EDF90C23184DFF22AB67052041
:103020001749FDF709FF174C402200212000FFF748
:10303000DDFC4027002301262121134A66702783E7
:10304000A260136063545F316184453963540F4A51
:103050000F496360E2602787A1620B606362E262EE
:1030600003F086FD80239B052E64EB649023094AC0
:10307000EA508022084B5202DA64F8BD0000115079
:1030800065060020302A00208400105000011050F6
:103090008000105010D001000020115010B5012107
:1030A0000520FDF785FE10BD10B500220021024865
:1030B00000F0BEF910BDC046502A0020044B197024
:1030C000002904D080219023024A8902D150704700
:1030D000FB2F0020002011500B785B0602D14B78AB
:1030E000052B00D070478A78014B1A60FAE7C0467A
:1030F00000001150F0B5C64600B5CC7888780A7942
:103100004B797F21A40701401B02C50913434F00DF
:10311000A20F1400324E7A195201B2189070012099
:103120006840507000205B055B0DD0701383D4762F
:103130008046CA00012D33D02A4884468801624463
:103140008446B4446046826040461060002933D013
:10315000254AC90090466246414451603F223F33B0
:103160009343022C00D15B0020487A190168520178
:10317000B218D1601E4ACB18036051405A408023D8
:1031800088465B019A4228D84346A4061C43802304
:103190007F197F01F61972681B062343136011E043
:1031A00014488446880162448446B444604682627E
:1031B00040461060002909D100236D0175196B602C
:1031C0000D4BEB60012080BCB846F0BD084AC90039
:1031D0009046624641445162C0E7FEF771FFD3E773
:1031E000302A00208400105004001050602E00206F
:1031F00000001050800010500001105010B503F076
:10320000B7FC10BD10B57F200C0020404000E40941
:10321000110000191A00034B4001C01800F008F912
:10322000012010BD302A00207F23180000B508407F
:1032300083B00B4204D14B424B41084A01339366A1
:103240008022C9094000064B401840010021C018E7
:10325000120103F0ADFC03B000BDC04600201150C8
:10326000302A00207F22130010B50B400A4200D103
:1032700010BDC9095B005B1804485B01C01800233E
:1032800000220349C37003F093FCF1E7302A0020C9
:10329000FFF7FFFF7F20002308404000C90910B559
:1032A0004018504C40012018426800211360826889
:1032B00013602022FFF79AFBE36C002B00D090E014
:1032C000E36E002B00D08CE08C33E358002B00D051
:1032D00087E0AC33E358002B00D082E0CC33E358D6
:1032E000002B7ED1EC33E358002B7AD10D33FF3322
:1032F000E358002B75D12D33FF33E358002B70D1E9
:103300004D33FF33E358002B6BD16D33FF33E3585C
:10331000002B66D18D33FF33E358002B61D1AD33E1
:10332000FF33E358002B5CD1CD33FF33E358002B40
:1033300057D1ED33FF33E358002B52D183239B0049
:10334000E358002B4DD18B239B00E358002B48D131
:1033500093239B00E358002B43D19B239B00E3580E
:10336000002B3ED1A3239B00E358002B39D1AB2384
:103370009B00E358002B34D1B3239B00E358002B70
:103380002FD1BB239B00E358002B2AD1C3239B00E2
:10339000E358002B25D1CB239B00E358002B20D1F1
:1033A000D3239B00E358002B1BD1DB239B00E35866
:1033B000002B16D1E3239B00E358002B11D1EB2304
:1033C0009B00E358002B0CD1F3239B00E358002B08
:1033D00007D1FB239B00E358002B02D1024B034A89
:1033E0001A6010BD302A0020602E0020800110508D
:1033F00080220A4B520410B51A60094B09491A6021
:1034000010000B689843FBD180220021520106482E
:10341000FFF7ECFA0922054B5A6710BD00E00040A7
:1034200000F0004008C000400000105000001150A3
:10343000002310B5C38201338282837601610400C8
:1034400003F08EFB002804D080219023074A8902D4
:10345000D150200003F05CFB002802D00123237729
:1034600010BD200003F094FBFAE7C0460020115085
:10347000002070477047C0467047C0460020704724
:1034800000207047002070477047C0467047C04614
:103490007047C0467047C046014B98787047C04699
:1034A000081E0020024B5878431E9841C0B2704756
:1034B000081E0020024B18784007C00F7047C04616
:1034C000081E0020F8B54746CE4680B52A4F0600B4
:1034D0003B78FF2B04D00120C0BCB946B046F8BDF4
:1034E000002154222548FFF781FA0022244C254B65
:1034F00020001A70FDF752FF234B1C60234C200064
:10350000143CFDF767FF200002F0A6F8204B214D88
:103510001C60214B002B04D0280000E000BF1F4B93
:1035200018601F49002489461C49002388462A78D0
:1035300010E043461B6862019B18002B12D05B68A9
:10354000002B0FD098472A780134E4B2511C230095
:10355000A14209DBA242ECD89B1A5B014B445B6899
:10356000002BEFD10020B7E730003E70FFF750FD91
:103570003000FFF793FDAEE704120020081E002084
:10358000C01D0020FC2F00205C1E0020FC1100202C
:10359000601E0020FA2F002000000000D81B002031
:1035A000A86F0010F0B5DE4657464E464546E0B5DA
:1035B000C84B91B002931B78FF2B00D13EE1C64B64
:1035C000C64E9B465F46C64B0DAC0193C54B009360
:1035D00035686A69EFF3108172B61368002BFCD06E
:1035E000BFF35F8FA9612800210001F065FE6A69C1
:1035F000AB69BFF35F8F0021116083F3108800284F
:1036000000D11BE16378082BE2D89B00FB589F4652
:103610006368002BDCD0A0689847D9E77F22217926
:10362000AF4D0A405300EB189846C8098044404605
:103630000123303005799D430571057903339D439E
:103640000571002A00D100E14346A74A1B7D12788C
:10365000934200D3EFE0A54A5B011568ED18002DF9
:1036600000D1EBE0A36862792078AD69A847AFE7A5
:103670009F4A1378002B00D1E0E01378013BDBB2C6
:1036800013701378002BA3D10122954D01212B78C3
:10369000042013432B703423EA5C8A43EA54EA5C27
:1036A0008243EA540133EA5C8A43EA54EA5C824387
:1036B000EA54237800209B4600F0DAFC602223794C
:1036C0001A40602A00D1EFE0402A00D1F5E0DB0685
:1036D000DB0E012B00D113E1022B00D1C7E0002B40
:1036E00000D0E1E0202A00D11CE2002A00D0DBE07B
:1036F0006379092B00D9D7E07E4A9B00D3589F46B7
:10370000774D2B78DB0700D462E7FFF7C3FE5FE756
:10371000019BDB78DB0700D45AE76068FFF7ACFE5B
:1037200056E76F4D2B78DB0700D451E72878000768
:10373000C00FFFF7ADFE4BE723786A4999468B46E9
:10374000694B6A4998468A4639001A7847460023E9
:10375000B04600254E46894610E053461B686A0174
:103760009B18002B00D176E0DB68300098473A7850
:103770000135EDB2511C2B008D4244DC9542ECD357
:103780009B1A5B015B44EFE7237858499946564BF7
:103790008A4698463100BB464E461A7800250023DB
:1037A000474689460FE053461B686A019B18002B69
:1037B00055D0DB68300098473A780135EDB2511C9E
:1037C0002B008D4207DC9542EDD39B1A009A5B01DA
:1037D00094466344EDE7019D542200212800FFF741
:1037E00005F91022FF214448FFF700F928002022A4
:1037F000FF2114304E465F46FFF7F8F800F02EFC2C
:10380000FFF744FEE4E6364D542200212800FFF77E
:10381000EDF81022FF21281DFFF7E8F828002022EC
:10382000FF21143046464F46FFF7E0F800F016FC43
:103830002379AB70CCE6501C984213DA11B0F0BC7F
:10384000BB46B246A946A046F0BDA368627920787F
:1038500000F022FCBCE646464F46214DE6E74E46C8
:103860005F46CBE71F4D9B1A5B015D19FAE670239B
:10387000217A0B4218D1C80982460F330B405B00F6
:1038800098461948EB1853441B7D007899468342AB
:1038900066D216485B01006881469944002A00D12F
:1038A0005FE14B46002B68D120780021FFF7BCFC7C
:1038B00080212078FFF7B8FC8AE6104800F0D8FB9A
:1038C000012158460EAAFFF7D3FD002800D07FE65D
:1038D000EAE7C04604120020006F0010601E0020BE
:1038E000081E0020A86F0010FA2F0020D81B00200F
:1038F000FC2F0020246F00100C1E002071340010DB
:10390000237A0F2BD0D8CF4AEB181B791578AB420E
:103910003ED3691C9942C7DB5D1BCB4B6D01ED1893
:10392000686900F0A5FB012158466B690EAA98470B
:10393000002800D04CE66022150023791D401A4271
:10394000B2D163790A3B012BAED800F091FB6379C9
:103950000A2B00D199E158460EA900F015FB37E675
:10396000431C4B4500DAF7E04B461B1A5B019946B6
:10397000B5488144002A00D1F3E04B46586900F075
:1039800077FB4B46012158465B690EAA98479CE796
:10399000AE4A5B011568ED18002DC1D184E7A3790B
:1039A00099466B789945D6D06B78002B00D033E1DF
:1039B0004B466B70002B00D12BE148460138C0B25A
:1039C000FCF7C0FD002800D17EE143780793022B6D
:1039D00000D079E10122C179B1468B114911134020
:1039E0000A40302112015B0113432A78A8468A431A
:1039F00013432B7009239A4682445646BA46C3782D
:103A000082781B021343C31805938E4B04938E4B8D
:103A100008938E4B09938E4B0A93059BB34200D8B3
:103A200055E1737801220B2B03D13378F278F61825
:103A30007378042B00D044E1059B00279B1B9BB2AD
:103A40000693049B0B921D78002303931BE0099AB5
:103A50007B011568ED18002D00D132E13100584688
:103A60002B69069A98478446082803D9069A824209
:103A700000D313E1049B01371D78FFB26B1C039741
:103A80009F4200DD1DE1BD42E1D8039B5D1B089B09
:103A90006D019C466544E1E76B780CAA0232137015
:103AA000584601230EA900F085FA91E5E3881A0A29
:103AB000D8B20F2A00D9F7E666499300CB589F4643
:103AC0000EA800F0DBFA5846A179FFF7EDFA0222C2
:103AD0002B7813432B707BE5E388012B00D0E3E6C2
:103AE00008222B78584693430EA92B7000F04CFA0D
:103AF0006EE5022029780CAB9A1C8B068908DB0F37
:103B000001400B431380584602230EA900F052FADD
:103B10005EE5E388012B00D0C6E608222B7813432C
:103B20002B7018E7237A0F2B00D9BDE6EB181D790F
:103B3000444B1B789D4228D2444B6D011B685D1994
:103B4000002D00D1B0E6686900F092FA01215846D4
:103B50006B690EAA9847B8E6002A00D0A4E60023B5
:103B6000994662790220130003928343012B15D0FA
:103B7000002A00D098E62B004344534430331B798D
:103B80000CAA9B07DB0F0232BCE75A1CAA4200DAE0
:103B90008AE6ED1A2C4B6D01ED18D4E7E388002B73
:103BA00012D1029B1878039B012B23D0FFF73CFB1B
:103BB00043460221EB18534430331A790A4301215A
:103BC0001A711A790A431A714B46002B00D1FFE48F
:103BD000586900F04DFA4B4601215B690EAA584620
:103BE0009847002000F044FA3523EB5CDB0700D552
:103BF000EEE4B0E6FFF736FB43460221EB185344F0
:103C000030331A798A431A711A7903998A431A71DF
:103C1000DAE7FFF73BFC9EE600215846FFF74EFA35
:103C20005846FFF7EBFAAB78074903930491054B2D
:103C3000064998461A780591002329001D008A46F6
:103C40001BE0C046FA2F0020A86F0010D81B0020F0
:103C50001C1E00204C6F0010059B6A011B689B18FE
:103C6000002B4DD0DB685846984743461A780135FB
:103C7000EDB2511C2B008D422EDC9542ECD39B1AE9
:103C8000049A5B0194466344ECE70CAB9A1C5846DB
:103C900001230EA9157000F08DF999E40B9A012A01
:103CA0004FD0002A3CD00023B07804E00133DBB2CF
:103CB0000F71934234D2C118C9B241440D79FF2D1E
:103CC000F4D04E464546574600236B70ECE54E4611
:103CD0005746FFF7D9FB3EE65546542200212800FF
:103CE000FEF784FE1022FF21281DFEF77FFE28002C
:103CF0002022FF211430FEF779FE039BAB7057E6BC
:103D00005546FAE7FFF7BAFB021E00D1CCE5D3789F
:103D100091781B020B4358460EA900F04BF9D4E5ED
:103D200065463B002A0031000A9801F041FAAC4692
:103D3000049B039A1B7866440133934200DB6CE6D4
:103D4000BFE7174B29699942ADD1079AABE7FFF757
:103D500097FB021E00D1A7E5584613780EA900F084
:103D600029F9B2E52189FCF7F1FB021EF4D19BE5AC
:103D7000022A0FD0FFF786FB021EC8D194E5FCF79C
:103D8000DDFB021E00D18FE5122358460EA900F07C
:103D900011F99AE5FCF7D6FB021EB8D184E5C046BE
:103DA0000D4E0010F8B557464E46DE4645460C000F
:103DB000E0B516001F00002A3CD0702398461E4B29
:103DC00000259B461D4B9A461AE05B461B78200057
:103DD00099465346997801F0ADF900281CD021008E
:103DE0004846FFF787F9002816D0A378DA09012A98
:103DF00019D00A9A013513702378E418B54219DAFC
:103E00006378052B08D1E3789B079B0FBB4203D156
:103E10004246A3781A42D8D00020F0BCBB46B24636
:103E2000A946A046F8BD0B9A013513702378E41813
:103E3000B542E5DB0120F0E704120020081E002057
:103E4000702270B58B780C001A4201D0002070BD32
:103E5000064B20001D78064B997801F06BF900287D
:103E6000F4D021002800FFF745F9F0E70412002004
:103E7000081E00200B007F2010B51840DB093433EA
:103E80004000044AC018044B1168C01801F00EF934
:103E900010BDC0465C1E0020081E00200B007F20C5
:103EA00010B51840DB0934334000044AC018044BF5
:103EB0001168C01801F022F910BDC0465C1E002038
:103EC000081E002070B57F240F480C4064000419C0
:103ED000CD09641930342079C00701D5002070BDA8
:103EE000012625790948354300782571FFF78AF9BD
:103EF0000028F4D1012223799343237123790332DB
:103F000093432371EAE7C046081E002004120020F4
:103F100010B50B4B0C001878FFF7A4F97F23022192
:103F2000084A23405B00E409D3181B1930331A797F
:103F30008A431A711A7901398A431A7110BDC04631
:103F400004120020081E002010B50D4B0C0018783C
:103F5000FFF7A0F97F2302210A4A23405B00E4090E
:103F6000D3181B1930331A798A431A711A79013917
:103F70008A431A711A7903318A431A7110BDC046F7
:103F800004120020081E002070B5094C060008220B
:103F900020000D00FEF730FD00238021E360A360C8
:103FA0002B783000994300220023FFF78BFF70BD70
:103FB0006C1D0020F8B5CE4647469046254E80B58C
:103FC0008146082230000D001F00FEF715FD434614
:103FD000B3600023F381EC79AB7924021C43231CEA
:103FE000BC4200D93B1C9FB2B381002C0DD0002FE6
:103FF00017D04246002A2BD0402F1BD89FB23378CF
:104000007F2B1CD80021144A0FE080212B7800223E
:10401000994348460023FFF755FFC0BCB946B04658
:10402000F8BD7F230022317899433B004846FFF7D3
:1040300049FFF2E740239FB233787F2BE2D9064C49
:104040003A0041462000FEF7D7FC80212200ECE731
:104050000020E2E76C1D0020C81D002010B51422CE
:1040600000210248FEF7C2FC10BDC0466C1D0020B6
:10407000014B18617047C0466C1D002010B5054CFF
:10408000010008222000FEF7B7FC0023A360E360D4
:1040900010BDC0466C1D002070B5384C1D00237843
:1040A0000600DA09C9098A4210D00020002D00D08C
:1040B00070BD21003000FFF70FF82369002B03D0FB
:1040C00022000321300098470120F1E77F2B06D81A
:1040D000A068002834D02A002949FEF78DFCE28927
:1040E000A1685219E38892B24919E281A160934212
:1040F00014D03F2D12D9A389981A051C80B24028EC
:104100002AD82078ADB27F2828D800219A4232D010
:104110001B4A2B003000FFF7D5FEC9E72369002BAF
:1041200005D0220002213000984700280AD08021C3
:1041300023780022994330000023FFF7C3FEB7E73E
:104140000020B5E700213000FFF76EF83000802135
:10415000FFF76AF80120ABE74025D2E79A4207D083
:10416000074C2A002000FEF747FC80212200D0E700
:1041700080210022CDE70022CBE7C0466C1D002045
:10418000C81D0020F0B5D6464F464646C0B5544C33
:104190000500636884B0002B24D0E1891A780839BF
:1041A00059189B18DA799879120202439B18CA1A97
:1041B000002A17DD0026207B04E01A789B18CA1A13
:1041C000002A0FDD5A78042AF7D1DA78002AF4D1D0
:1041D0009A7882420DD01A7801369B18F6B2CA1A24
:1041E000002AEFDC002004B0E0BCBA46B146A84685
:1041F000F0BDA36A9B5D002BF4D000212800227A39
:10420000FCF7AEFA0028EDD020002C3001F020F8A9
:10421000E38A6289002B39D0218E8F00BB4235DCC6
:10422000A78ABC460027604518D3490889462D490E
:10423000278B88460968BA4603914946FF1ABFB2E0
:10424000C91B884228DA0399002940D10A23414634
:10425000171C0B60624500D96746BFB220003A00C8
:10426000216C2C3001F076F83B002800226C217A7A
:10427000FFF728FE0028B5D0A26A237A925D3900A4
:10428000009228000022FCF775FAACE7071C904268
:10429000E3D9171CBFB2E1E73900494488420EDD7B
:1042A0000399002913D1634502D00A2341460B60CC
:1042B0005346171C5245D0D91F1CBFB2CEE7171C5E
:1042C0009A4200D91F1C0399BFB20029C6D04046AC
:1042D0000399171C013901609A42EDD8BFB2BDE7BE
:1042E000DC1B0020D82000200120704710B50028DA
:1042F00007D105484368002B03D02C3001F0F0F8BB
:1043000000E0002010BDC046DC1B002030B5104C82
:1043100083B0442200212000FEF768FB0D4B4022B1
:1043200023622423E2540C4B2000A36201230B4997
:1043300000931E3A2C3000F055FF094D2800FDF780
:104340002DF80023E363074BA563236403B030BD5E
:10435000DC1B0020DC2000202C1F0020801F002000
:104360001C2A0020342E00200020704710B5054C78
:10437000202200212000FEF739FB20002C3001F024
:104380006BF910BDDC1B00204A79030070B50020DA
:10439000012A02D18A79012A00D070BDCA79202A67
:1043A000FBD10A79002AF8D1CA78002AF5D11B4C32
:1043B0006268002AF1D10A0023708423032561601A
:1043C000E3817C3206E0242B16D00B78C918531AEF
:1043D000002B1FDD4B78052BF5D12800CB7818403A
:1043E0000128F2D12F301842EFD18B78DB09012B55
:1043F000EBD18B79E376E8E78B78032BE5D10220CC
:104400004B790E791B02FF3033438342DDD10B7AA7
:10441000A376DAE701237C206373BEE7DC1B002070
:10442000F0B54546DE4657464E46E0B51400050059
:1044300083B0012939D0022907D0012003B0F0BC94
:10444000BB46B246A946A046F0BD13781F2219000C
:1044500091432029F1D1DB06DB0E012B00D1BCE01A
:10446000022B30D1994F20797B68F989002B2AD013
:104470001A7859189B18DA799E79120232439B18E0
:10448000CA1A002A05DC1EE01A789B18CA1A002AEC
:1044900019DD5A78052AF7D19A788242F4D12100A1
:1044A00028003A6AFCF7BCF8C8E7602311781A00C4
:1044B0000A4092460B4208D163780A2B3FD00B2B5F
:1044C00063D0012BB9D00020B8E7202AFBD1637953
:1044D00020791B02CA060343D20E012A00D16AE1E9
:1044E000022AF0D1794F7B68FE89002BEBD0B046D1
:1044F0001A7898449B189A7994466646DA7912029B
:1045000032439B1842464646D21A002A05DCDAE7B7
:104510001A789B18F21A002AD5DD5A78052AF7D1A5
:104520009A788242F4D149B2002900DA01E22423C8
:1045300021002800FB5C3A6AFFF73CFD7EE7634FF1
:104540007B68002BBFD0F9891A78083959189B1855
:10455000DA799879120202439B18CA1A002AB2DD4E
:104560005646207904E01A789B18CA1A002AAADD58
:104570005A78042AF7D1DA78002AF4D19A7882425C
:1045800000D10FE10136F6B2EDE7504F7E68002E04
:1045900099D0FA893378083AB218F618F379B179D4
:1045A0001B020B43F618931B002B8CDD2379A446CA
:1045B00051461C0005E03378F618931B002B00DCF5
:1045C00081E77378042BF6D1F378002BF3D1B07820
:1045D000A04225D00131C9B2EDE73C4F617926797F
:1045E0007868002900D00FE1FA89002800D16AE735
:1045F000083A03008118002A06DC64E71A789B1841
:10460000CA1A002A00DC5EE75A78042AF6D18278BA
:10461000B242F3D1210028003A6AFCF703F80DE713
:10462000A14664469846E378A2781B0213439B4652
:104630003B7B8A464B4500D136E15B465246D9B2B8
:10464000BB6A48469954FB897A68083BD218931B89
:10465000002B05DC4BE03378F618931B002B46DD6E
:104660007378042BF7D1B3788342F4D1F3788B427B
:10467000F1D13379002B33D0AA46B9464546B3462B
:104680000194804634001F00160003E02378E418EC
:10469000AF421DD9331B002B1ADD6378052BF5D1F2
:1046A00021005046FFF7CCFB002800D10BE7A37890
:1046B000504619000093FFF72BFC009BDB09012BF0
:1046C00000D107E10135EDB2E0E7C046DC1B002078
:1046D000BB46A8464F465546019CD84500D0F2E659
:1046E00021002800FFF700FE002800D1EBE63E7F06
:1046F000012E52D17B7F002B4FD0BB7F002B4CD0A3
:10470000FB7E002B49D03B69002B46D0FEF7C4FE50
:10471000FB7E9A46002803D0013B9E40F3B29A46A6
:1047200053463E695E43FEF7B7FE01004B1E9941BA
:104730008F4B494298461940FA239B009C46300013
:104740006144FDF79BFD3B6986B29B46FEF7A4FEE4
:1047500001004B1E9941434649421940FA239B00F0
:104760009C467A7FBB7F01365A4356437B89B6B25B
:1047700090466144B34210D3B31A9BB2994658464F
:1047800053465843FDF77AFD4B46002900D1DEE041
:104790004A461B0413437B613E8321002800FFF738
:1047A000F3FB4AE6B246BA6A0123210028005244CC
:1047B000FFF700FC42E66F4F1B0A7A68944648D127
:1047C0006346FA89002B00D17DE6083A9E18002A3C
:1047D00000DC78E662468C46110005E01A789B18EA
:1047E000F21A002A00DC6EE65A78042AF6D18A789A
:1047F0008242F3D1614649B2002900DB97E62100ED
:104800002800FBF743FF19E6002800D15BE6837818
:10481000C9B2B34200D056E60378C318D8799A7962
:10482000000210431A78861A002E00DC4BE6181896
:104830009B1805E01A789B18C21A002A00DC42E691
:10484000DA788A42F6D1210028003A6AFBF7ECFEBA
:10485000F4E5002A00D136E69278DBB2984682422F
:1048600000D030E6624612786244D67990793602FA
:1048700006431078331A002B00DC24E696194346D1
:10488000121805E010781218B01A002800DC1AE699
:10489000D0789842F6D149B2002900DB47E62100E2
:1048A0002800FBF7F5FEC9E54346397A28003B733B
:1048B000FFF74AFB38002C3000F0CEFE2100280024
:1048C000FBF75AFF002800D1FDE543463B727B61B0
:1048D0003B83B2E63022E378134200D0F2E64B4647
:1048E000009A49461A7242461A73637922791B026A
:1048F00013434A465B055B0D53815B461B785B4463
:10490000F21A002A05DC1AE01A789B18F21A002A1B
:1049100014DD5A78042A11D0242AF5D19A78012A74
:104920001CD0022AF0D1DA78012AEDD11A798A77DF
:10493000EAE721002800FBF7A7FE7FE589465046FD
:10494000FFF720FC002800D0BCE6002076E54246B8
:104950009B1ABB824B463E83FB821EE79A7A4A77BC
:104960005A790A775A78242ACED19A78D9E7C0465C
:10497000581B0000DC1B002010B5074B1A7A8A4236
:1049800008D19A6A0023002A02D0FFF7FBFB03003C
:10499000180010BD0023FBE7DC1B0020F0B5D64655
:1049A0004F4646460C788046C0B592460F00002020
:1049B0007F2C44D94D790A792D02E4061543E40E83
:1049C000012C41D0022C3AD14B494C688946CE8902
:1049D000002C34D02578A6196419A579AC46614617
:1049E000E5792D020D436419351B002D05DC26E009
:1049F00025786419351B002D48DD6578052DF7D124
:104A0000A0789042F4D1242249468A5C141C9A4230
:104A100000D91C1C4B46A4B2186AA24236D322000D
:104A20005146FDF7E9FF4B461A6A7F2339780B4060
:104A3000212B49D0230039004046FFF7BBFAE0BCE8
:104A4000BA46B146A846F0BD2B492D0A89464C68A6
:104A50001ED1CD89002CF2D0082149428C46AC44AD
:104A6000614625006618002905DCE8E728782D183E
:104A7000701B00280ADD68780428F7D1A0789042DE
:104A8000C1D028782D18701B0028F4DC0020D6E750
:104A9000002CD4D0A678EDB29642D0D12278A218BC
:104AA000D4799679240234431678A11B0029C6DDF7
:104AB0001419921904E010781218A01A0028E5DDE4
:104AC000D078A842F7D19EE74B46997E7B799942F0
:104AD000B0D1FB78012BADD17B78012BAAD15378D3
:104AE00011781B020B43917809041943D3781B06F4
:104AF0000B4349460B619DE7DC1B002070B50400A9
:104B0000FEF7D0FC002800D170BDFEF7D3FC0028D2
:104B1000FAD1E378002BF7D025001035280000F0FB
:104B2000B5FB3F28F0D90020E178FFF7A3F9002872
:104B3000EAD0280000F0AAFBE1783F2806D922003D
:104B40004023C8320020FFF7BDF9DDE70020FFF762
:104B5000A5F9D9E710B50400FEF7A4FC002801D19F
:104B6000002010BDFEF7A6FC0028F9D1A3001B19F8
:104B7000DB00044A1B19DB00D218137901301840FE
:104B8000EFE7C046241C0020830010B51B18DB0093
:104B90001818034BC000C01800F05AFB10BDC046E7
:104BA000341C0020F8B54746CE4686003418E40091
:104BB0002418224BE40080B5270098468023103744
:104BC000050047445B029A4200D31D4A380092B266
:104BD00000F0C0FB8146FEF765FC002804D1484682
:104BE000C0BCB946B046F8BDFEF764FC0028F6D15B
:104BF0007619F6007519ED004544EB78002BEED0E0
:104C0000380000F043FB3F28E9D90020E978FFF79E
:104C100031F90028E3D0380000F038FBE9783F286C
:104C200007D9C8342200402342440020FFF74AF944
:104C3000D5E70020FFF732F9D1E7C046241C002059
:104C4000FFFF0000F8B50400FEF72CFC002801D19E
:104C50000020F8BDFEF72EFC0028F9D1A3001B1997
:104C6000DB001C19E4002600134D243676193000B1
:104C700000F0EEFA0028EBD02F190020B978FFF7EA
:104C8000F9F80028E4D00934FF34651929004022DE
:104C9000300000F05FFBB978041E08D003002A0042
:104CA0000020FFF70FF90028D2D02000D1E7002024
:104CB000FFF7F4F8CCE7C046241C002070B5840050
:104CC0002418E4000C4B2418E400E41880230500A9
:104CD0005B029A4200D3094A200092B200F000FC25
:104CE0000600200000F0B4FA3F2801D8300070BD63
:104CF0002800FFF7A7FFF9E7481C0020FFFF00008E
:104D0000830010B51B18DB001818034BC000C01837
:104D100000F0BCFA10BDC046481C0020A422F0B52B
:104D20000025194C83B0002120005200FDF75EFEE3
:104D3000164B21001D70FF236371E1235B02A3600A
:104D4000200008234022A37338310095073B103020
:104D500000F048FA2700012321002000260040220D
:104D600078310093B837243000F03CFAC036380070
:104D7000FCF714FB3000FCF711FBE56127622663AA
:104D8000656303B0F0BDC046241C0020201C002039
:104D90000A4A116B136A00290CD0002B07D000239C
:104DA000D36153631363002313620120704753637D
:104DB0001363FAE7002BF8D0D161F4E7241C00203C
:104DC00070B50F4C052200212000FDF70FFE0D4DA0
:104DD0002B78DA0707D50C4C9B070CD50121200056
:104DE00000F05AFC70BD2000103000F035FC2B782C
:104DF000054C9B07F2D4200000F02EFCEEE7C046E5
:104E0000241C0020201C0020481C0020F0B5C646B1
:104E100000B54B79060082B0022B1CD18B79022B96
:104E200019D1244FBB78002B15D18B7809253B7005
:104E30000C780C196378242B07D012E02378E4183F
:104E40005D196378ADB2242B0BD1AA42F6D238009B
:104E5000FFF754FE00E00025280002B080BCB846F1
:104E6000F0BD1A00052B17D0042AF0D163790A2B64
:104E7000EDD12378210098460F4B30000193013388
:104E8000009341440223023AFEF78CFF0028E2D04F
:104E90000E354544ADB2DAE721003000FEF7D0FF11
:104EA0000028D8D0A3787B7023785D19E418627845
:104EB000ADB2D9E7241C0020261C0020F8B56023E1
:104EC00014001278050013400020202B12D12F4A25
:104ED0006379277916781B023B439E420AD1637897
:104EE000222B1AD007D8202B3CD0212B02D101290C
:104EF00030D00120F8BD232BFCD1012940D003295B
:104F0000F7D1234B002BF4D0E178A37809020020DD
:104F1000194300E000BF0120ECE7012930D003294C
:104F2000E7D101252E00A378E478023924021C433E
:104F30001471264024321000714000F0ADFB154B77
:104F4000002BD6D06208002031002A4000E000BFCC
:104F50000120CFE70723210028000F4AFFF72AF896
:104F60000120C7E70129F5D00329C2D10B4B002B43
:104F7000BFD008320020110000E000BF0120B9E7D7
:104F800021002800FFF700F80120B3E7241C0020CF
:104F900000000000000000002C1C002000000000A9
:104FA000F0B54F464646D646C0B5374D8046EA78FE
:104FB0000C001F008A423CD0AB788B4210D00020FE
:104FC000E0BCBA46B146A846F0BD304B002B04D039
:104FD0002F4800F053F9002852D02800FFF78EFD2B
:104FE000AB78A34201D00120EAE72A4B002B02D084
:104FF000002000E000BF0020FFF724FE0028F2D1CF
:10500000254C200000F024F90028ECD1002FEAD034
:10501000BF06E8D1243C4046A178FEF72BFF0028CC
:10502000E1D0002300224046A178FEF74BFF01208B
:10503000C6E79AB210232E009A46C836AA44310019
:10504000504600F04DFA154B002BBED06B79FF2B6C
:10505000BBD0002FB9D0F219914603E001364E457E
:10506000B3D06B7932789A42F8D1504600F006F905
:105070000028F3D15346103B597900E000BFEDE71B
:1050800000E000BFA9E7C046241C0020000000008B
:10509000341C002000000000481C0020000000001C
:1050A00010B50020FEF70EFA10BDC046037870B5AB
:1050B000DB0704000E00DD0F002B17D103785B0720
:1050C00001D5280070BD01213000494201F040FDAA
:1050D0002378DB07DD0F002B0AD123785B0708D488
:1050E0000422237801251343237002E00025E8E71A
:1050F0000025300001F0FCFCE3E7C04670B50C0071
:10510000012106004942200001F022FD33785B07AF
:10511000DD0F002B04DB200001F0EAFC280070BD4D
:105120003378DB0704D40422337893433370F2E7F7
:105130000025F0E7437902791B021343C2785B052F
:1051400092075B0D920F022A1DD0032A0CD000207B
:10515000012A08D102394A425141124A9446614417
:1051600099424041C0B2704702394A1E91410E4AED
:10517000494211408022D200944600206144994265
:105180004041C0B2EFE7022905D0002040229A42F8
:105190004041C0B2E7E7054A981843425841C0B2BF
:1051A000E1E7C046FF03000040FCFFFF00FEFFFFF9
:1051B0008A1870B5914207D27F264C78052C04D00E
:1051C0000C7809198A42F8D870BD34008D782C40CB
:1051D00064000419ED0963550C7809198A42ECD86A
:1051E000F2E7C046F0B5C64600B504006846057E45
:1051F0008020884617001E000002824226D8E06800
:10520000002803D00121494201F0A2FC20690028B6
:1052100003D00121494201F09BFC43462360730403
:105220005B0CED031D430023E0686381A780E580EC
:105230002381002801D001F05BFC2069002801D007
:1052400001F056FC012080BCB846F0BD0020FAE712
:1052500010B5048941898288A3B288B28C4207D3F1
:105260001B1A9BB2101C9A4200D9181C80B210BDA8
:105270005100091A5B189BB2F4E7C04603894089C4
:10528000181A43425841C0B27047C04610B504894D
:1052900041898288A3B288B28C4207D31B1A9BB281
:1052A00000209A4201D9D21A90B210BD5100091AB9
:1052B0005B189BB2F4E7C04670B5040000690E00AD
:1052C000002803D00121494201F042FC2589608970
:1052D000A288A9B283B2854232D3CD1AADB2002DD5
:1052E00028D0AA4208D291422FD3891A8BB2638167
:1052F0009A4203D89B1A9BB29A42FBD9E288216852
:105300005204520C53433000C918FDF775FB6389F2
:105310000125591C89B2A2888B420DD90021520067
:10532000891A89B220696181002801D001F0E0FB6F
:10533000280070BD618989B252009142F2DBEFE72B
:105340005500ED1A4D19ADB2C9E789188BB26381CA
:10535000CEE7C046F0B546464F46D646C0B5060035
:10536000006989469046002803D00121494201F096
:10537000EFFB31897289B5888BB294B2914254D3D4
:105380001F1BBFB2002F4AD0BD4205D2AB4251D243
:105390005B199CB22F0074814346B8453DD89FB23B
:1053A000A54203D8641BA4B2A542FBD9F288316898
:1053B0005204520C904662432B1B9BB28918424602
:1053C0009F4225D953439BB21A0048469A46FDF79F
:1053D00013FB434648467D1B64195C4331685044C7
:1053E000A2B2FDF709FB7189B588CB199BB26A009F
:1053F000994216D99B1A9BB230697381002801D05B
:1054000001F076FB3800E0BCBA46B146A846F0BDD4
:1054100048467A43FDF7F0FAE5E73B1CBFE773899E
:105420009BB26A009342E7DBE4E76F003F1BDF19A2
:10543000BFB2A7E75B1B9CB2ACE7C046F8B504005F
:10544000C0680E00002803D00121494201F080FB12
:10545000258920896189A288ADB283B28FB2884242
:1054600029D3DB1B9BB29A4209D8E779FF0906D101
:10547000E068002801D001F03BFB3800F8BD2B00AC
:1054800095421DD39B1A9BB29342FBD2E2882068BF
:105490005204520C53433100C018FDF7ADFA6B1C97
:1054A0009BB2A2889D4217D9002352009B1A9BB23F
:1054B00001272381DCE75100C91B5B189BB2D2E7AF
:1054C000E28820685204520C53433100C018FDF7A3
:1054D00093FA0135A288ABB252009342E8DBE5E7CC
:1054E000F0B54E465746DE464546E0B589460600CD
:1054F000170083B0002A67D0C068002803D00121BC
:10550000494201F025FB3389F2799BB298467389B1
:10551000B5889BB2D20940D198455ED26A00D31AB1
:1055200043449BB2AB425DD2EB1A1A1C9BB2BB4206
:1055300000D93A1C97B27B1B9BB20193F3885B04A2
:105540005B0C9A464346DB199BB29B464446A845F2
:1055500003D3641BA4B2AC42FBD25346634330680E
:105560002D1BADB2C018BD424BD3524649467A43BB
:10557000FDF742FAB3885B00D84501D89B4503DBB1
:105580005A46D31A9BB29B465B463D003381F06876
:1055900000281AD001F0ACFA17E0F2885204520C3D
:1055A0009246AF4220D298454DD34246D21A92B28B
:1055B0006900781B80B2D21901908A4233DA4346DF
:1055C000FB189BB29B46C1E70025280003B0F0BC46
:1055D000BB46B246A946A046F0BD4246D31A9BB28E
:1055E000AB42A1D30025D2E7002DD0D07F1B57437B
:1055F00098465A19002392B2B94493462F0001935A
:10560000A4E753465D43ADB22A004946FDF7F4F9DD
:10561000019B2900E21853465A43306892B249442C
:10562000FDF7EAF9A6E75A1992B29346D21B92B255
:10563000904693420CD94346591A8BB29846FB18B0
:105640009BB29B4682E76900CA1A424492B2B0E715
:10565000914200DD7AE7EEE710B50400C06800284B
:1056600003D00121494201F073FA2069002803D0D8
:105670000121494201F06CFA0023E0686381238133
:10568000002801D001F034FA2069002801D001F08F
:105690002FFA012010BDC04670B50400C0680D008F
:1056A000002803D00121494201F052FA2069002864
:1056B00003D00121494201F04BFA7F21E379ED014A
:1056C0001940E0682943E171002801D001F010FA87
:1056D0002069002801D001F00BFA012070BDC046FE
:1056E000014B18607047C046641F0020014B1868CA
:1056F0007047C046641F002010B582B0FFF7F6FF68
:10570000002807D000F0E2F903000020002B10D0A1
:1057100002B010BD684600F0B5FB0F4C6946200092
:1057200000F0B6FB002813D02000FFF7D9FF2000BF
:10573000E8E7FFF7DBFF040000F0E4F9064B9C42CA
:1057400006D1236820005B6B98470020FFF7C8FF55
:1057500001204042DCE7C04690170020184B70B58E
:10576000C4580500002C14D02168002906D06368B5
:10577000A268144800F0B8F8002323600C202056DB
:10578000002810DA0D202056002803DA00220C4BE6
:10579000EA5070BD00F0E4F80D20205600F0C4F887
:1057A000FF236373F2E700F0DBF80C20205600F0D3
:1057B000BBF8FF230D20237320560028E6DBE9E722
:1057C0004C080000E86F0010802200235200828104
:1057D000034A016083608373036183507047C0464E
:1057E0004C08000010B5FFF7B9FF10BD70B580235D
:1057F000D025802604002D065B04AB62360400220F
:1058000000211820FBF75AF96E62002200211720B0
:10581000FBF754F9AE6121002000FFF7D5FF862287
:10582000002303211201A354064AA350064AA350A1
:105830001432A152054AA354054A13600122054BB4
:10584000E25070BD680800006C080000820800008B
:105850002021002078080000F8B5040000F074F959
:105860001C4E3368002B32D00021200000F080F95C
:105870000121200000F07CF92000FFF7B3FFD025C4
:10588000802380275B042D06AB62002200211820B4
:105890003F04FBF713F90022002117206F62FBF78A
:1058A0000DF921002000AF61FFF78EFF8622002353
:1058B00003211201A354084A3360A350074AA3509E
:1058C0001432A152064AA3540122064BE25000F0C2
:1058D00045F9F8BD20210020680800006C08000090
:1058E000820800007808000070B5012516000279D2
:1058F0000C009540013D9D40FBF784F9074B084A99
:105900009C466444240DA400A358AB43A350FBF76A
:1059100085F9A1190348FBF7F1F970BD0000E0AF6C
:10592000241F0020AC20002010B5034B01001800FC
:10593000FBF7E4F910BDC046F82F002010B5064B68
:10594000064C82B00100009300220B232000FBF7DD
:1059500091F902B010BDC046A06D0010F82F0020D4
:1059600003001149820151180868D90241400F48CB
:1059700010B501400E48A024101801600120984085
:105980000C4BE40518600C4B802118600B4B49044C
:10599000E0500B4B9C46624413680B42FCD18023C1
:1059A000DB00E05010BDC046100000500178000040
:1059B000101000500434005014340050440400000F
:1059C0000C00005010B5036801495B6A984710BD90
:1059D00008120020802010B5402207494004FBF740
:1059E000ADF8012202211820FBF77CF80D200121DF
:1059F000FBF7DEF9002010BD1D5A0010802010B505
:105A000005494004FBF7BCF8182000220221FBF7EF
:105A100069F8002010BDC0461D5A0010D0231B0697
:105A20001B6810B55A4253412F225B429343094AE7
:105A300094466344DB6A9B0700D410BD0022022118
:105A40001820FBF74FF8044B0449186803685B6A99
:105A50009847F2E7304101401C2100200812002045
:105A6000154B70B51B680400002B0ED0134D2A682F
:105A7000002A01D0013A2A6098472B68002B05D1F3
:105A8000236820000E499B69984770BDFCF7A4F875
:105A900000230C4A0A4D8018594102000B1E02DAFD
:105AA0000122094B5242EB602368290020005B6908
:105AB000AA609847E9E7C046202100202421002061
:105AC0001812002050C30000FFFFFF7F10B5040034
:105AD0000848FFF78BFE084B00221C60236820005B
